{
  "_format": "hh-sol-artifact-1",
  "contractName": "AuditHashUpload",
  "sourceName": "contracts/AuditHashUpload.sol",
  "abi": [
    {
      "inputs": [],
      "stateMutability": "payable",
      "type": "constructor"
    },
    {
      "anonymous": false,
      "inputs": [
        {
          "indexed": true,
          "internalType": "address",
          "name": "from",
          "type": "address"
        },
        {
          "indexed": false,
          "internalType": "uint256",
          "name": "timestamp",
          "type": "uint256"
        },
        {
          "indexed": false,
          "internalType": "string",
          "name": "name",
          "type": "string"
        },
        {
          "indexed": false,
          "internalType": "string",
          "name": "fileHash",
          "type": "string"
        },
        {
          "indexed": false,
          "internalType": "uint256",
          "name": "auditNumber",
          "type": "uint256"
        }
      ],
      "name": "fileAdded",
      "type": "event"
    },
    {
      "anonymous": false,
      "inputs": [
        {
          "indexed": true,
          "internalType": "address",
          "name": "from",
          "type": "address"
        },
        {
          "indexed": false,
          "internalType": "uint256",
          "name": "timestamp",
          "type": "uint256"
        },
        {
          "indexed": false,
          "internalType": "uint256",
          "name": "auditNumber",
          "type": "uint256"
        }
      ],
      "name": "successfulValidation",
      "type": "event"
    },
    {
      "anonymous": false,
      "inputs": [
        {
          "indexed": true,
          "internalType": "address",
          "name": "from",
          "type": "address"
        },
        {
          "indexed": false,
          "internalType": "uint256",
          "name": "timestamp",
          "type": "uint256"
        },
        {
          "indexed": false,
          "internalType": "uint256",
          "name": "auditNumber",
          "type": "uint256"
        }
      ],
      "name": "validationComplete",
      "type": "event"
    },
    {
      "inputs": [
        {
          "internalType": "uint256",
          "name": "_auditNumber",
          "type": "uint256"
        }
      ],
      "name": "getAllAuditFiles",
      "outputs": [
        {
          "components": [
            {
              "internalType": "string",
              "name": "name",
              "type": "string"
            },
            {
              "internalType": "string",
              "name": "hash",
              "type": "string"
            },
            {
              "internalType": "address",
              "name": "addedBy",
              "type": "address"
            },
            {
              "internalType": "uint256",
              "name": "timestamp",
              "type": "uint256"
            },
            {
              "internalType": "uint256",
              "name": "auditNumber",
              "type": "uint256"
            }
          ],
          "internalType": "struct AuditHashUpload.File[]",
          "name": "",
          "type": "tuple[]"
        }
      ],
      "stateMutability": "view",
      "type": "function"
    },
    {
      "inputs": [],
      "name": "getAllFiles",
      "outputs": [
        {
          "components": [
            {
              "internalType": "string",
              "name": "name",
              "type": "string"
            },
            {
              "internalType": "string",
              "name": "hash",
              "type": "string"
            },
            {
              "internalType": "address",
              "name": "addedBy",
              "type": "address"
            },
            {
              "internalType": "uint256",
              "name": "timestamp",
              "type": "uint256"
            },
            {
              "internalType": "uint256",
              "name": "auditNumber",
              "type": "uint256"
            }
          ],
          "internalType": "struct AuditHashUpload.File[][]",
          "name": "",
          "type": "tuple[][]"
        }
      ],
      "stateMutability": "view",
      "type": "function"
    },
    {
      "inputs": [],
      "name": "getAllFilesUploadedByUser",
      "outputs": [
        {
          "components": [
            {
              "internalType": "string",
              "name": "name",
              "type": "string"
            },
            {
              "internalType": "string",
              "name": "hash",
              "type": "string"
            },
            {
              "internalType": "address",
              "name": "addedBy",
              "type": "address"
            },
            {
              "internalType": "uint256",
              "name": "timestamp",
              "type": "uint256"
            },
            {
              "internalType": "uint256",
              "name": "auditNumber",
              "type": "uint256"
            }
          ],
          "internalType": "struct AuditHashUpload.File[][]",
          "name": "",
          "type": "tuple[][]"
        }
      ],
      "stateMutability": "view",
      "type": "function"
    },
    {
      "inputs": [],
      "name": "getAllNames",
      "outputs": [
        {
          "internalType": "string[]",
          "name": "",
          "type": "string[]"
        }
      ],
      "stateMutability": "view",
      "type": "function"
    },
    {
      "inputs": [
        {
          "internalType": "uint256",
          "name": "_auditNumber",
          "type": "uint256"
        }
      ],
      "name": "getAuditFiles",
      "outputs": [
        {
          "components": [
            {
              "internalType": "string",
              "name": "name",
              "type": "string"
            },
            {
              "internalType": "string",
              "name": "hash",
              "type": "string"
            },
            {
              "internalType": "address",
              "name": "addedBy",
              "type": "address"
            },
            {
              "internalType": "uint256",
              "name": "timestamp",
              "type": "uint256"
            },
            {
              "internalType": "uint256",
              "name": "auditNumber",
              "type": "uint256"
            }
          ],
          "internalType": "struct AuditHashUpload.File[]",
          "name": "",
          "type": "tuple[]"
        }
      ],
      "stateMutability": "view",
      "type": "function"
    },
    {
      "inputs": [
        {
          "internalType": "string",
          "name": "_name",
          "type": "string"
        }
      ],
      "name": "getFilesByName",
      "outputs": [
        {
          "components": [
            {
              "internalType": "string",
              "name": "name",
              "type": "string"
            },
            {
              "internalType": "string",
              "name": "hash",
              "type": "string"
            },
            {
              "internalType": "address",
              "name": "addedBy",
              "type": "address"
            },
            {
              "internalType": "uint256",
              "name": "timestamp",
              "type": "uint256"
            },
            {
              "internalType": "uint256",
              "name": "auditNumber",
              "type": "uint256"
            }
          ],
          "internalType": "struct AuditHashUpload.File[]",
          "name": "",
          "type": "tuple[]"
        }
      ],
      "stateMutability": "view",
      "type": "function"
    },
    {
      "inputs": [
        {
          "internalType": "string",
          "name": "_name",
          "type": "string"
        },
        {
          "internalType": "uint256",
          "name": "_auditNumber",
          "type": "uint256"
        }
      ],
      "name": "getMostRecentFile",
      "outputs": [
        {
          "components": [
            {
              "internalType": "string",
              "name": "name",
              "type": "string"
            },
            {
              "internalType": "string",
              "name": "hash",
              "type": "string"
            },
            {
              "internalType": "address",
              "name": "addedBy",
              "type": "address"
            },
            {
              "internalType": "uint256",
              "name": "timestamp",
              "type": "uint256"
            },
            {
              "internalType": "uint256",
              "name": "auditNumber",
              "type": "uint256"
            }
          ],
          "internalType": "struct AuditHashUpload.File",
          "name": "",
          "type": "tuple"
        }
      ],
      "stateMutability": "view",
      "type": "function"
    },
    {
      "inputs": [
        {
          "internalType": "string",
          "name": "_name",
          "type": "string"
        },
        {
          "internalType": "uint256",
          "name": "_auditNumber",
          "type": "uint256"
        }
      ],
      "name": "getMostRecentFileUploadedByUser",
      "outputs": [
        {
          "components": [
            {
              "internalType": "string",
              "name": "name",
              "type": "string"
            },
            {
              "internalType": "string",
              "name": "hash",
              "type": "string"
            },
            {
              "internalType": "address",
              "name": "addedBy",
              "type": "address"
            },
            {
              "internalType": "uint256",
              "name": "timestamp",
              "type": "uint256"
            },
            {
              "internalType": "uint256",
              "name": "auditNumber",
              "type": "uint256"
            }
          ],
          "internalType": "struct AuditHashUpload.File",
          "name": "",
          "type": "tuple"
        }
      ],
      "stateMutability": "view",
      "type": "function"
    },
    {
      "inputs": [
        {
          "internalType": "string[]",
          "name": "_names",
          "type": "string[]"
        }
      ],
      "name": "getMultipleFilesByName",
      "outputs": [
        {
          "components": [
            {
              "internalType": "string",
              "name": "name",
              "type": "string"
            },
            {
              "internalType": "string",
              "name": "hash",
              "type": "string"
            },
            {
              "internalType": "address",
              "name": "addedBy",
              "type": "address"
            },
            {
              "internalType": "uint256",
              "name": "timestamp",
              "type": "uint256"
            },
            {
              "internalType": "uint256",
              "name": "auditNumber",
              "type": "uint256"
            }
          ],
          "internalType": "struct AuditHashUpload.File[][]",
          "name": "",
          "type": "tuple[][]"
        }
      ],
      "stateMutability": "view",
      "type": "function"
    },
    {
      "inputs": [
        {
          "internalType": "string",
          "name": "_name",
          "type": "string"
        }
      ],
      "name": "getVersions",
      "outputs": [
        {
          "components": [
            {
              "internalType": "string",
              "name": "name",
              "type": "string"
            },
            {
              "internalType": "string",
              "name": "hash",
              "type": "string"
            },
            {
              "internalType": "address",
              "name": "addedBy",
              "type": "address"
            },
            {
              "internalType": "uint256",
              "name": "timestamp",
              "type": "uint256"
            },
            {
              "internalType": "uint256",
              "name": "auditNumber",
              "type": "uint256"
            }
          ],
          "internalType": "struct AuditHashUpload.File[]",
          "name": "",
          "type": "tuple[]"
        }
      ],
      "stateMutability": "view",
      "type": "function"
    },
    {
      "inputs": [
        {
          "internalType": "uint256",
          "name": "_auditNumber",
          "type": "uint256"
        }
      ],
      "name": "successfulValidationComplete",
      "outputs": [],
      "stateMutability": "nonpayable",
      "type": "function"
    },
    {
      "inputs": [
        {
          "internalType": "string",
          "name": "str",
          "type": "string"
        }
      ],
      "name": "toLowerCase",
      "outputs": [
        {
          "internalType": "string",
          "name": "",
          "type": "string"
        }
      ],
      "stateMutability": "pure",
      "type": "function"
    },
    {
      "inputs": [
        {
          "internalType": "string",
          "name": "_hash",
          "type": "string"
        },
        {
          "internalType": "string",
          "name": "_name",
          "type": "string"
        },
        {
          "internalType": "uint256",
          "name": "_auditNumber",
          "type": "uint256"
        }
      ],
      "name": "uploadErrorFile",
      "outputs": [],
      "stateMutability": "nonpayable",
      "type": "function"
    },
    {
      "inputs": [
        {
          "internalType": "string",
          "name": "_hash",
          "type": "string"
        },
        {
          "internalType": "string",
          "name": "_name",
          "type": "string"
        },
        {
          "internalType": "uint256",
          "name": "_auditNumber",
          "type": "uint256"
        }
      ],
      "name": "uploadHash",
      "outputs": [],
      "stateMutability": "nonpayable",
      "type": "function"
    },
    {
      "inputs": [
        {
          "internalType": "string[]",
          "name": "_hashes",
          "type": "string[]"
        },
        {
          "internalType": "string[]",
          "name": "_names",
          "type": "string[]"
        },
        {
          "internalType": "uint256",
          "name": "_auditNumber",
          "type": "uint256"
        }
      ],
      "name": "uploadHashes",
      "outputs": [],
      "stateMutability": "nonpayable",
      "type": "function"
    }
  ],
  "bytecode": "0x60806040526000600455620000546040518060400160405280601e81526020017f436f6e747261637420686173206265656e20636f6e7374727563746564210000815250620000bd60201b62002cf31760201c565b33600560006101000a81548173ffffffffffffffffffffffffffffffffffffffff021916908373ffffffffffffffffffffffffffffffffffffffff16021790555060644442620000a591906200026e565b620000b191906200030b565b600081905550620003b2565b6200015d81604051602401620000d491906200022e565b6040516020818303038152906040527f41304fac000000000000000000000000000000000000000000000000000000007bffffffffffffffffffffffffffffffffffffffffffffffffffffffff19166020820180517bffffffffffffffffffffffffffffffffffffffffffffffffffffffff83818316178352505050506200016060201b60201c565b50565b6200018681620001816200018960201b62002d8c17620001aa60201b60201c565b60201c565b50565b60006a636f6e736f6c652e6c6f679050600080835160208501845afa505050565b620001be60201b620032d617819050919050565b7f4e487b7100000000000000000000000000000000000000000000000000000000600052605160045260246000fd5b6000620001fa8262000252565b6200020681856200025d565b935062000218818560208601620002d5565b6200022381620003a1565b840191505092915050565b600060208201905081810360008301526200024a8184620001ed565b905092915050565b600081519050919050565b600082825260208201905092915050565b60006200027b82620002cb565b91506200028883620002cb565b9250827fffffffffffffffffffffffffffffffffffffffffffffffffffffffffffffffff03821115620002c057620002bf62000343565b5b828201905092915050565b6000819050919050565b60005b83811015620002f5578082015181840152602081019050620002d8565b8381111562000305576000848401525b50505050565b60006200031882620002cb565b91506200032583620002cb565b92508262000338576200033762000372565b5b828206905092915050565b7f4e487b7100000000000000000000000000000000000000000000000000000000600052601160045260246000fd5b7f4e487b7100000000000000000000000000000000000000000000000000000000600052601260045260246000fd5b6000601f19601f8301169050919050565b61431780620003c26000396000f3fe608060405234801561001057600080fd5b50600436106100f55760003560e01c80639d90b35811610097578063e4e6e6f911610066578063e4e6e6f9146102bc578063ee23cc20146102d8578063fb825e5f14610308578063ff24b5d514610326576100f5565b80639d90b358146101fc578063b754728c1461022c578063c03f540b1461025c578063e14efff11461028c576100f5565b80635f7aaab9116100d35780635f7aaab914610164578063813a18b11461019457806385c7f4a3146101b057806397b21440146101cc576100f5565b8063045fb480146100fa57806319f7d5c71461012a578063280fce6614610148575b600080fd5b610114600480360381019061010f91906135da565b610344565b6040516101219190613ccd565b60405180910390f35b610132610662565b60405161013f9190613c89565b60405180910390f35b610162600480360381019061015d919061361b565b610827565b005b61017e6004803603810190610179919061369a565b610bc8565b60405161018b9190613d81565b60405180910390f35b6101ae60048036038101906101a9919061355b565b610f43565b005b6101ca60048036038101906101c591906136ee565b611390565b005b6101e660048036038101906101e191906135da565b6113e3565b6040516101f39190613cef565b60405180910390f35b610216600480360381019061021191906135da565b6115c5565b6040516102239190613ccd565b60405180910390f35b6102466004803603810190610241919061369a565b6117d0565b6040516102539190613d81565b60405180910390f35b610276600480360381019061027191906136ee565b611c5e565b6040516102839190613ccd565b60405180910390f35b6102a660048036038101906102a191906136ee565b61201f565b6040516102b39190613ccd565b60405180910390f35b6102d660048036038101906102d1919061361b565b61221f565b005b6102f260048036038101906102ed919061351a565b6125bc565b6040516102ff9190613c89565b60405180910390f35b6103106128e6565b60405161031d9190613cab565b60405180910390f35b61032e6129bf565b60405161033b9190613c89565b60405180910390f35b60606000610351836113e3565b905060006002826040516103659190613c5b565b908152602001604051809103902080549050905060008167ffffffffffffffff8111156103bb577f4e487b7100000000000000000000000000000000000000000000000000000000600052604160045260246000fd5b6040519080825280602002602001820160405280156103f457816020015b6103e1613305565b8152602001906001900390816103d95790505b50905060005b82811015610656576002846040516104129190613c5b565b90815260200160405180910390208181548110610458577f4e487b7100000000000000000000000000000000000000000000000000000000600052603260045260246000fd5b90600052602060002090600502016040518060a0016040529081600082018054610481906140e2565b80601f01602080910402602001604051908101604052809291908181526020018280546104ad906140e2565b80156104fa5780601f106104cf576101008083540402835291602001916104fa565b820191906000526020600020905b8154815290600101906020018083116104dd57829003601f168201915b50505050508152602001600182018054610513906140e2565b80601f016020809104026020016040519081016040528092919081815260200182805461053f906140e2565b801561058c5780601f106105615761010080835404028352916020019161058c565b820191906000526020600020905b81548152906001019060200180831161056f57829003601f168201915b505050505081526020016002820160009054906101000a900473ffffffffffffffffffffffffffffffffffffffff1673ffffffffffffffffffffffffffffffffffffffff1673ffffffffffffffffffffffffffffffffffffffff16815260200160038201548152602001600482015481525050828281518110610638577f4e487b7100000000000000000000000000000000000000000000000000000000600052603260045260246000fd5b6020026020010181905250808061064e90614145565b9150506103fa565b50809350505050919050565b60606000600380549050905060008167ffffffffffffffff8111156106b0577f4e487b7100000000000000000000000000000000000000000000000000000000600052604160045260246000fd5b6040519080825280602002602001820160405280156106e357816020015b60608152602001906001900390816106ce5790505b50905060005b8281101561081e576107c76003828154811061072e577f4e487b7100000000000000000000000000000000000000000000000000000000600052603260045260246000fd5b906000526020600020018054610743906140e2565b80601f016020809104026020016040519081016040528092919081815260200182805461076f906140e2565b80156107bc5780601f10610791576101008083540402835291602001916107bc565b820191906000526020600020905b81548152906001019060200180831161079f57829003601f168201915b505050505033612dad565b828281518110610800577f4e487b7100000000000000000000000000000000000000000000000000000000600052603260045260246000fd5b6020026020010181905250808061081690614145565b9150506106e9565b50809250505090565b60006040518060a001604052808481526020018581526020013373ffffffffffffffffffffffffffffffffffffffff1681526020014281526020018381525090506001600083815260200190815260200160002081908060018154018082558091505060019003906000526020600020906005020160009091909190915060008201518160000190805190602001906108c192919061334a565b5060208201518160010190805190602001906108de92919061334a565b5060408201518160020160006101000a81548173ffffffffffffffffffffffffffffffffffffffff021916908373ffffffffffffffffffffffffffffffffffffffff160217905550606082015181600301556080820151816004015550506002610947846113e3565b6040516109549190613c5b565b908152602001604051809103902081908060018154018082558091505060019003906000526020600020906005020160009091909190915060008201518160000190805190602001906109a892919061334a565b5060208201518160010190805190602001906109c592919061334a565b5060408201518160020160006101000a81548173ffffffffffffffffffffffffffffffffffffffff021916908373ffffffffffffffffffffffffffffffffffffffff160217905550606082015181600301556080820151816004015550506000805b600380549050811015610abb57610a3d856113e3565b8051906020012060038281548110610a7e577f4e487b7100000000000000000000000000000000000000000000000000000000600052603260045260246000fd5b90600052602060002001604051610a959190613c44565b60405180910390201415610aa857600191505b8080610ab390614145565b915050610a27565b50600015158115151415610b14576000610ad4856113e3565b9050600381908060018154018082558091505060019003906000526020600020016000909190919091509080519060200190610b1192919061334a565b50505b3373ffffffffffffffffffffffffffffffffffffffff167f95ec011339c973cff688521ce04cdd7f83c69e571af5750274d7c4f6ab08351242868887604051610b609493929190613da3565b60405180910390a2600160046000828254610b7b9190613fca565b92505081905550610bc16040518060400160405280601781526020017f2573206861732075706c6f6164656420612066696c652100000000000000000081525033613215565b5050505050565b610bd0613305565b6000600160008481526020019081526020016000209050610bef613305565b6000828054905011610c36576040517f08c379a0000000000000000000000000000000000000000000000000000000008152600401610c2d90613d41565b60405180910390fd5b6000600190505b8280549050811015610f3757610c52866113e3565b80519060200120610d34848381548110610c95577f4e487b7100000000000000000000000000000000000000000000000000000000600052603260045260246000fd5b90600052602060002090600502016000018054610cb1906140e2565b80601f0160208091040260200160405190810160405280929190818152602001828054610cdd906140e2565b8015610d2a5780601f10610cff57610100808354040283529160200191610d2a565b820191906000526020600020905b815481529060010190602001808311610d0d57829003601f168201915b50505050506113e3565b805190602001201415610f2457828181548110610d7a577f4e487b7100000000000000000000000000000000000000000000000000000000600052603260045260246000fd5b90600052602060002090600502016040518060a0016040529081600082018054610da3906140e2565b80601f0160208091040260200160405190810160405280929190818152602001828054610dcf906140e2565b8015610e1c5780601f10610df157610100808354040283529160200191610e1c565b820191906000526020600020905b815481529060010190602001808311610dff57829003601f168201915b50505050508152602001600182018054610e35906140e2565b80601f0160208091040260200160405190810160405280929190818152602001828054610e61906140e2565b8015610eae5780601f10610e8357610100808354040283529160200191610eae565b820191906000526020600020905b815481529060010190602001808311610e9157829003601f168201915b505050505081526020016002820160009054906101000a900473ffffffffffffffffffffffffffffffffffffffff1673ffffffffffffffffffffffffffffffffffffffff1673ffffffffffffffffffffffffffffffffffffffff1681526020016003820154815260200160048201548152505091505b8080610f2f90614145565b915050610c3d565b50809250505092915050565b60005b835181101561138a576000848281518110610f8a577f4e487b7100000000000000000000000000000000000000000000000000000000600052603260045260246000fd5b602002602001015190506000848381518110610fcf577f4e487b7100000000000000000000000000000000000000000000000000000000600052603260045260246000fd5b6020026020010151905060006040518060a001604052808381526020018481526020013373ffffffffffffffffffffffffffffffffffffffff1681526020014281526020018681525090506002611025836113e3565b6040516110329190613c5b565b9081526020016040518091039020819080600181540180825580915050600190039060005260206000209060050201600090919091909150600082015181600001908051906020019061108692919061334a565b5060208201518160010190805190602001906110a392919061334a565b5060408201518160020160006101000a81548173ffffffffffffffffffffffffffffffffffffffff021916908373ffffffffffffffffffffffffffffffffffffffff1602179055506060820151816003015560808201518160040155505060016000868152602001908152602001600020819080600181540180825580915050600190039060005260206000209060050201600090919091909150600082015181600001908051906020019061115a92919061334a565b50602082015181600101908051906020019061117792919061334a565b5060408201518160020160006101000a81548173ffffffffffffffffffffffffffffffffffffffff021916908373ffffffffffffffffffffffffffffffffffffffff160217905550606082015181600301556080820151816004015550506000805b60038054905081101561126d576111ef846113e3565b8051906020012060038281548110611230577f4e487b7100000000000000000000000000000000000000000000000000000000600052603260045260246000fd5b906000526020600020016040516112479190613c44565b6040518091039020141561125a57600191505b808061126590614145565b9150506111d9565b506000151581151514156112c6576000611286846113e3565b90506003819080600181540180825580915050600190039060005260206000200160009091909190915090805190602001906112c392919061334a565b50505b3373ffffffffffffffffffffffffffffffffffffffff167f95ec011339c973cff688521ce04cdd7f83c69e571af5750274d7c4f6ab0835124285878a6040516113129493929190613da3565b60405180910390a260016004600082825461132d9190613fca565b925050819055506113736040518060400160405280601781526020017f2573206861732075706c6f6164656420612066696c652100000000000000000081525033613215565b50505050808061138290614145565b915050610f46565b50505050565b3373ffffffffffffffffffffffffffffffffffffffff167fc7e4687053c12e3be5ddd1018c011c0381248623be25d62cc50533b296d4ff0f42836040516113d8929190613df6565b60405180910390a250565b6060600082905060005b81518110156115bb577f410000000000000000000000000000000000000000000000000000000000000060f81c60ff16828281518110611456577f4e487b7100000000000000000000000000000000000000000000000000000000600052603260045260246000fd5b602001015160f81c60f81b60f81c60ff16101580156114e457507f5a0000000000000000000000000000000000000000000000000000000000000060f81c60ff168282815181106114d0577f4e487b7100000000000000000000000000000000000000000000000000000000600052603260045260246000fd5b602001015160f81c60f81b60f81c60ff1611155b156115a8576020828281518110611524577f4e487b7100000000000000000000000000000000000000000000000000000000600052603260045260246000fd5b602001015160f81c60f81b60f81c61153c9190614020565b60f81b828281518110611578577f4e487b7100000000000000000000000000000000000000000000000000000000600052603260045260246000fd5b60200101907effffffffffffffffffffffffffffffffffffffffffffffffffffffffffffff1916908160001a9053505b80806115b390614145565b9150506113ed565b5080915050919050565b60606002826040516115d79190613c5b565b9081526020016040518091039020805480602002602001604051908101604052809291908181526020016000905b828210156117c557838290600052602060002090600502016040518060a0016040529081600082018054611638906140e2565b80601f0160208091040260200160405190810160405280929190818152602001828054611664906140e2565b80156116b15780601f10611686576101008083540402835291602001916116b1565b820191906000526020600020905b81548152906001019060200180831161169457829003601f168201915b505050505081526020016001820180546116ca906140e2565b80601f01602080910402602001604051908101604052809291908181526020018280546116f6906140e2565b80156117435780601f1061171857610100808354040283529160200191611743565b820191906000526020600020905b81548152906001019060200180831161172657829003601f168201915b505050505081526020016002820160009054906101000a900473ffffffffffffffffffffffffffffffffffffffff1673ffffffffffffffffffffffffffffffffffffffff1673ffffffffffffffffffffffffffffffffffffffff1681526020016003820154815260200160048201548152505081526020019060010190611605565b505050509050919050565b6117d8613305565b60006001600084815260200190815260200160002090506117f7613305565b600082805490501161183e576040517f08c379a000000000000000000000000000000000000000000000000000000000815260040161183590613d41565b60405180910390fd5b6000600190505b8280549050811015611be05761185a866113e3565b8051906020012061193c84838154811061189d577f4e487b7100000000000000000000000000000000000000000000000000000000600052603260045260246000fd5b906000526020600020906005020160000180546118b9906140e2565b80601f01602080910402602001604051908101604052809291908181526020018280546118e5906140e2565b80156119325780601f1061190757610100808354040283529160200191611932565b820191906000526020600020905b81548152906001019060200180831161191557829003601f168201915b50505050506113e3565b805190602001201480156119e557503373ffffffffffffffffffffffffffffffffffffffff1683828154811061199b577f4e487b7100000000000000000000000000000000000000000000000000000000600052603260045260246000fd5b906000526020600020906005020160020160009054906101000a900473ffffffffffffffffffffffffffffffffffffffff1673ffffffffffffffffffffffffffffffffffffffff16145b15611bcd57828181548110611a23577f4e487b7100000000000000000000000000000000000000000000000000000000600052603260045260246000fd5b90600052602060002090600502016040518060a0016040529081600082018054611a4c906140e2565b80601f0160208091040260200160405190810160405280929190818152602001828054611a78906140e2565b8015611ac55780601f10611a9a57610100808354040283529160200191611ac5565b820191906000526020600020905b815481529060010190602001808311611aa857829003601f168201915b50505050508152602001600182018054611ade906140e2565b80601f0160208091040260200160405190810160405280929190818152602001828054611b0a906140e2565b8015611b575780601f10611b2c57610100808354040283529160200191611b57565b820191906000526020600020905b815481529060010190602001808311611b3a57829003601f168201915b505050505081526020016002820160009054906101000a900473ffffffffffffffffffffffffffffffffffffffff1673ffffffffffffffffffffffffffffffffffffffff1673ffffffffffffffffffffffffffffffffffffffff1681526020016003820154815260200160048201548152505091505b8080611bd890614145565b915050611845565b503373ffffffffffffffffffffffffffffffffffffffff16816040015173ffffffffffffffffffffffffffffffffffffffff1614611c53576040517f08c379a0000000000000000000000000000000000000000000000000000000008152600401611c4a90613d61565b60405180910390fd5b809250505092915050565b606060006001600084815260200190815260200160002080549050905060008167ffffffffffffffff811115611cbd577f4e487b7100000000000000000000000000000000000000000000000000000000600052604160045260246000fd5b604051908082528060200260200182016040528015611cf657816020015b611ce3613305565b815260200190600190039081611cdb5790505b50905060005b6001600086815260200190815260200160002080549050811015612014573373ffffffffffffffffffffffffffffffffffffffff16600160008781526020019081526020016000208281548110611d7c577f4e487b7100000000000000000000000000000000000000000000000000000000600052603260045260246000fd5b906000526020600020906005020160020160009054906101000a900473ffffffffffffffffffffffffffffffffffffffff1673ffffffffffffffffffffffffffffffffffffffff16141561200157600160008681526020019081526020016000208181548110611e15577f4e487b7100000000000000000000000000000000000000000000000000000000600052603260045260246000fd5b90600052602060002090600502016040518060a0016040529081600082018054611e3e906140e2565b80601f0160208091040260200160405190810160405280929190818152602001828054611e6a906140e2565b8015611eb75780601f10611e8c57610100808354040283529160200191611eb7565b820191906000526020600020905b815481529060010190602001808311611e9a57829003601f168201915b50505050508152602001600182018054611ed0906140e2565b80601f0160208091040260200160405190810160405280929190818152602001828054611efc906140e2565b8015611f495780601f10611f1e57610100808354040283529160200191611f49565b820191906000526020600020905b815481529060010190602001808311611f2c57829003601f168201915b505050505081526020016002820160009054906101000a900473ffffffffffffffffffffffffffffffffffffffff1673ffffffffffffffffffffffffffffffffffffffff1673ffffffffffffffffffffffffffffffffffffffff16815260200160038201548152602001600482015481525050828281518110611ff5577f4e487b7100000000000000000000000000000000000000000000000000000000600052603260045260246000fd5b60200260200101819052505b808061200c90614145565b915050611cfc565b508092505050919050565b606060016000838152602001908152602001600020805480602002602001604051908101604052809291908181526020016000905b8282101561221457838290600052602060002090600502016040518060a0016040529081600082018054612087906140e2565b80601f01602080910402602001604051908101604052809291908181526020018280546120b3906140e2565b80156121005780601f106120d557610100808354040283529160200191612100565b820191906000526020600020905b8154815290600101906020018083116120e357829003601f168201915b50505050508152602001600182018054612119906140e2565b80601f0160208091040260200160405190810160405280929190818152602001828054612145906140e2565b80156121925780601f1061216757610100808354040283529160200191612192565b820191906000526020600020905b81548152906001019060200180831161217557829003601f168201915b505050505081526020016002820160009054906101000a900473ffffffffffffffffffffffffffffffffffffffff1673ffffffffffffffffffffffffffffffffffffffff1673ffffffffffffffffffffffffffffffffffffffff1681526020016003820154815260200160048201548152505081526020019060010190612054565b505050509050919050565b60006040518060a001604052808481526020018581526020013373ffffffffffffffffffffffffffffffffffffffff168152602001428152602001838152509050600261226b846113e3565b6040516122789190613c5b565b908152602001604051809103902081908060018154018082558091505060019003906000526020600020906005020160009091909190915060008201518160000190805190602001906122cc92919061334a565b5060208201518160010190805190602001906122e992919061334a565b5060408201518160020160006101000a81548173ffffffffffffffffffffffffffffffffffffffff021916908373ffffffffffffffffffffffffffffffffffffffff160217905550606082015181600301556080820151816004015550506001600083815260200190815260200160002081908060018154018082558091505060019003906000526020600020906005020160009091909190915060008201518160000190805190602001906123a092919061334a565b5060208201518160010190805190602001906123bd92919061334a565b5060408201518160020160006101000a81548173ffffffffffffffffffffffffffffffffffffffff021916908373ffffffffffffffffffffffffffffffffffffffff160217905550606082015181600301556080820151816004015550506000805b6003805490508110156124b357612435856113e3565b8051906020012060038281548110612476577f4e487b7100000000000000000000000000000000000000000000000000000000600052603260045260246000fd5b9060005260206000200160405161248d9190613c44565b604051809103902014156124a057600191505b80806124ab90614145565b91505061241f565b5060001515811515141561250c5760006124cc856113e3565b905060038190806001815401808255809150506001900390600052602060002001600090919091909150908051906020019061250992919061334a565b50505b3373ffffffffffffffffffffffffffffffffffffffff167fffceaf133880a9412a64cfd7d40eba6cf7129da1e84e37dfc78eeacfbcbdde754285604051612554929190613df6565b60405180910390a260016004600082825461256f9190613fca565b925050819055506125b56040518060400160405280601781526020017f2573206861732075706c6f6164656420612066696c652100000000000000000081525033613215565b5050505050565b60606000825167ffffffffffffffff811115612601577f4e487b7100000000000000000000000000000000000000000000000000000000600052604160045260246000fd5b60405190808252806020026020018201604052801561263457816020015b606081526020019060019003908161261f5790505b50905060005b83518110156128dc57600284828151811061267e577f4e487b7100000000000000000000000000000000000000000000000000000000600052603260045260246000fd5b60200260200101516040516126939190613c5b565b9081526020016040518091039020805480602002602001604051908101604052809291908181526020016000905b8282101561288157838290600052602060002090600502016040518060a00160405290816000820180546126f4906140e2565b80601f0160208091040260200160405190810160405280929190818152602001828054612720906140e2565b801561276d5780601f106127425761010080835404028352916020019161276d565b820191906000526020600020905b81548152906001019060200180831161275057829003601f168201915b50505050508152602001600182018054612786906140e2565b80601f01602080910402602001604051908101604052809291908181526020018280546127b2906140e2565b80156127ff5780601f106127d4576101008083540402835291602001916127ff565b820191906000526020600020905b8154815290600101906020018083116127e257829003601f168201915b505050505081526020016002820160009054906101000a900473ffffffffffffffffffffffffffffffffffffffff1673ffffffffffffffffffffffffffffffffffffffff1673ffffffffffffffffffffffffffffffffffffffff16815260200160038201548152602001600482015481525050815260200190600101906126c1565b505050508282815181106128be577f4e487b7100000000000000000000000000000000000000000000000000000000600052603260045260246000fd5b602002602001018190525080806128d490614145565b91505061263a565b5080915050919050565b60606003805480602002602001604051908101604052809291908181526020016000905b828210156129b6578382906000526020600020018054612929906140e2565b80601f0160208091040260200160405190810160405280929190818152602001828054612955906140e2565b80156129a25780601f10612977576101008083540402835291602001916129a2565b820191906000526020600020905b81548152906001019060200180831161298557829003601f168201915b50505050508152602001906001019061290a565b50505050905090565b60606000600380549050905060008167ffffffffffffffff811115612a0d577f4e487b7100000000000000000000000000000000000000000000000000000000600052604160045260246000fd5b604051908082528060200260200182016040528015612a4057816020015b6060815260200190600190039081612a2b5790505b50905060005b82811015612cea57600260038281548110612a8a577f4e487b7100000000000000000000000000000000000000000000000000000000600052603260045260246000fd5b90600052602060002001604051612aa19190613c72565b9081526020016040518091039020805480602002602001604051908101604052809291908181526020016000905b82821015612c8f57838290600052602060002090600502016040518060a0016040529081600082018054612b02906140e2565b80601f0160208091040260200160405190810160405280929190818152602001828054612b2e906140e2565b8015612b7b5780601f10612b5057610100808354040283529160200191612b7b565b820191906000526020600020905b815481529060010190602001808311612b5e57829003601f168201915b50505050508152602001600182018054612b94906140e2565b80601f0160208091040260200160405190810160405280929190818152602001828054612bc0906140e2565b8015612c0d5780601f10612be257610100808354040283529160200191612c0d565b820191906000526020600020905b815481529060010190602001808311612bf057829003601f168201915b505050505081526020016002820160009054906101000a900473ffffffffffffffffffffffffffffffffffffffff1673ffffffffffffffffffffffffffffffffffffffff1673ffffffffffffffffffffffffffffffffffffffff1681526020016003820154815260200160048201548152505081526020019060010190612acf565b50505050828281518110612ccc577f4e487b7100000000000000000000000000000000000000000000000000000000600052603260045260246000fd5b60200260200101819052508080612ce290614145565b915050612a46565b50809250505090565b612d8981604051602401612d079190613cef565b6040516020818303038152906040527f41304fac000000000000000000000000000000000000000000000000000000007bffffffffffffffffffffffffffffffffffffffffffffffffffffffff19166020820180517bffffffffffffffffffffffffffffffffffffffffffffffffffffffff83818316178352505050506132b1565b50565b60006a636f6e736f6c652e6c6f679050600080835160208501845afa505050565b60606000600284604051612dc19190613c5b565b9081526020016040518091039020805480602002602001604051908101604052809291908181526020016000905b82821015612faf57838290600052602060002090600502016040518060a0016040529081600082018054612e22906140e2565b80601f0160208091040260200160405190810160405280929190818152602001828054612e4e906140e2565b8015612e9b5780601f10612e7057610100808354040283529160200191612e9b565b820191906000526020600020905b815481529060010190602001808311612e7e57829003601f168201915b50505050508152602001600182018054612eb4906140e2565b80601f0160208091040260200160405190810160405280929190818152602001828054612ee0906140e2565b8015612f2d5780601f10612f0257610100808354040283529160200191612f2d565b820191906000526020600020905b815481529060010190602001808311612f1057829003601f168201915b505050505081526020016002820160009054906101000a900473ffffffffffffffffffffffffffffffffffffffff1673ffffffffffffffffffffffffffffffffffffffff1673ffffffffffffffffffffffffffffffffffffffff1681526020016003820154815260200160048201548152505081526020019060010190612def565b5050505090506000805b825181101561305c578473ffffffffffffffffffffffffffffffffffffffff16838281518110613012577f4e487b7100000000000000000000000000000000000000000000000000000000600052603260045260246000fd5b60200260200101516040015173ffffffffffffffffffffffffffffffffffffffff16141561304957818061304590614145565b9250505b808061305490614145565b915050612fb9565b5060008167ffffffffffffffff81111561309f577f4e487b7100000000000000000000000000000000000000000000000000000000600052604160045260246000fd5b6040519080825280602002602001820160405280156130d857816020015b6130c5613305565b8152602001906001900390816130bd5790505b5090506000805b8451811015613207578673ffffffffffffffffffffffffffffffffffffffff16858281518110613138577f4e487b7100000000000000000000000000000000000000000000000000000000600052603260045260246000fd5b60200260200101516040015173ffffffffffffffffffffffffffffffffffffffff1614156131f457848181518110613199577f4e487b7100000000000000000000000000000000000000000000000000000000600052603260045260246000fd5b60200260200101518383815181106131da577f4e487b7100000000000000000000000000000000000000000000000000000000600052603260045260246000fd5b602002602001018190525081806131f090614145565b9250505b80806131ff90614145565b9150506130df565b508194505050505092915050565b6132ad828260405160240161322b929190613d11565b6040516020818303038152906040527f319af333000000000000000000000000000000000000000000000000000000007bffffffffffffffffffffffffffffffffffffffffffffffffffffffff19166020820180517bffffffffffffffffffffffffffffffffffffffffffffffffffffffff83818316178352505050506132b1565b5050565b6132c8816132c0612d8c6132cb565b63ffffffff16565b50565b6132d6819050919050565b7f4e487b7100000000000000000000000000000000000000000000000000000000600052605160045260246000fd5b6040518060a001604052806060815260200160608152602001600073ffffffffffffffffffffffffffffffffffffffff16815260200160008152602001600081525090565b828054613356906140e2565b90600052602060002090601f01602090048101928261337857600085556133bf565b82601f1061339157805160ff19168380011785556133bf565b828001600101855582156133bf579182015b828111156133be5782518255916020019190600101906133a3565b5b5090506133cc91906133d0565b5090565b5b808211156133e95760008160009055506001016133d1565b5090565b60006134006133fb84613e44565b613e1f565b9050808382526020820190508285602086028201111561341f57600080fd5b60005b8581101561346957813567ffffffffffffffff81111561344157600080fd5b80860161344e89826134db565b85526020850194506020840193505050600181019050613422565b5050509392505050565b600061348661348184613e70565b613e1f565b90508281526020810184848401111561349e57600080fd5b6134a98482856140a0565b509392505050565b600082601f8301126134c257600080fd5b81356134d28482602086016133ed565b91505092915050565b600082601f8301126134ec57600080fd5b81356134fc848260208601613473565b91505092915050565b600081359050613514816142ca565b92915050565b60006020828403121561352c57600080fd5b600082013567ffffffffffffffff81111561354657600080fd5b613552848285016134b1565b91505092915050565b60008060006060848603121561357057600080fd5b600084013567ffffffffffffffff81111561358a57600080fd5b613596868287016134b1565b935050602084013567ffffffffffffffff8111156135b357600080fd5b6135bf868287016134b1565b92505060406135d086828701613505565b9150509250925092565b6000602082840312156135ec57600080fd5b600082013567ffffffffffffffff81111561360657600080fd5b613612848285016134db565b91505092915050565b60008060006060848603121561363057600080fd5b600084013567ffffffffffffffff81111561364a57600080fd5b613656868287016134db565b935050602084013567ffffffffffffffff81111561367357600080fd5b61367f868287016134db565b925050604061369086828701613505565b9150509250925092565b600080604083850312156136ad57600080fd5b600083013567ffffffffffffffff8111156136c757600080fd5b6136d3858286016134db565b92505060206136e485828601613505565b9150509250929050565b60006020828403121561370057600080fd5b600061370e84828501613505565b91505092915050565b6000613723838361385b565b905092915050565b600061373783836139c4565b905092915050565b600061374b8383613b2c565b905092915050565b61375c81614057565b82525050565b61376b81614057565b82525050565b600061377c82613efb565b6137868185613f4e565b93508360208202850161379885613ea1565b8060005b858110156137d457848403895281516137b58582613717565b94506137c083613f27565b925060208a0199505060018101905061379c565b50829750879550505050505092915050565b60006137f182613f06565b6137fb8185613f5f565b93508360208202850161380d85613eb1565b8060005b85811015613849578484038952815161382a858261372b565b945061383583613f34565b925060208a01995050600181019050613811565b50829750879550505050505092915050565b600061386682613f11565b6138708185613f70565b93508360208202850161388285613ec1565b8060005b858110156138be578484038952815161389f858261373f565b94506138aa83613f41565b925060208a01995050600181019050613886565b50829750879550505050505092915050565b60006138db82613f11565b6138e58185613f81565b9350836020820285016138f785613ec1565b8060005b858110156139335784840389528151613914858261373f565b945061391f83613f41565b925060208a019950506001810190506138fb565b50829750879550505050505092915050565b60008154613952816140e2565b61395c8186613f92565b945060018216600081146139775760018114613988576139bb565b60ff198316865281860193506139bb565b61399185613ed1565b60005b838110156139b357815481890152600182019150602081019050613994565b838801955050505b50505092915050565b60006139cf82613f1c565b6139d98185613f9d565b93506139e98185602086016140af565b6139f28161421b565b840191505092915050565b6000613a0882613f1c565b613a128185613fae565b9350613a228185602086016140af565b613a2b8161421b565b840191505092915050565b6000613a4182613f1c565b613a4b8185613fbf565b9350613a5b8185602086016140af565b80840191505092915050565b60008154613a74816140e2565b613a7e8186613fbf565b94506001821660008114613a995760018114613aaa57613add565b60ff19831686528186019350613add565b613ab385613ee6565b60005b83811015613ad557815481890152600182019150602081019050613ab6565b838801955050505b50505092915050565b6000613af3602183613fae565b9150613afe8261422c565b604082019050919050565b6000613b16602983613fae565b9150613b218261427b565b604082019050919050565b600060a0830160008301518482036000860152613b4982826139c4565b91505060208301518482036020860152613b6382826139c4565b9150506040830151613b786040860182613753565b506060830151613b8b6060860182613c26565b506080830151613b9e6080860182613c26565b508091505092915050565b600060a0830160008301518482036000860152613bc682826139c4565b91505060208301518482036020860152613be082826139c4565b9150506040830151613bf56040860182613753565b506060830151613c086060860182613c26565b506080830151613c1b6080860182613c26565b508091505092915050565b613c2f81614089565b82525050565b613c3e81614089565b82525050565b6000613c508284613945565b915081905092915050565b6000613c678284613a36565b915081905092915050565b6000613c7e8284613a67565b915081905092915050565b60006020820190508181036000830152613ca38184613771565b905092915050565b60006020820190508181036000830152613cc581846137e6565b905092915050565b60006020820190508181036000830152613ce781846138d0565b905092915050565b60006020820190508181036000830152613d0981846139fd565b905092915050565b60006040820190508181036000830152613d2b81856139fd565b9050613d3a6020830184613762565b9392505050565b60006020820190508181036000830152613d5a81613ae6565b9050919050565b60006020820190508181036000830152613d7a81613b09565b9050919050565b60006020820190508181036000830152613d9b8184613ba9565b905092915050565b6000608082019050613db86000830187613c35565b8181036020830152613dca81866139fd565b90508181036040830152613dde81856139fd565b9050613ded6060830184613c35565b95945050505050565b6000604082019050613e0b6000830185613c35565b613e186020830184613c35565b9392505050565b6000613e29613e3a565b9050613e358282614114565b919050565b6000604051905090565b600067ffffffffffffffff821115613e5f57613e5e6141ec565b5b602082029050602081019050919050565b600067ffffffffffffffff821115613e8b57613e8a6141ec565b5b613e948261421b565b9050602081019050919050565b6000819050602082019050919050565b6000819050602082019050919050565b6000819050602082019050919050565b60008190508160005260206000209050919050565b60008190508160005260206000209050919050565b600081519050919050565b600081519050919050565b600081519050919050565b600081519050919050565b6000602082019050919050565b6000602082019050919050565b6000602082019050919050565b600082825260208201905092915050565b600082825260208201905092915050565b600082825260208201905092915050565b600082825260208201905092915050565b600081905092915050565b600082825260208201905092915050565b600082825260208201905092915050565b600081905092915050565b6000613fd582614089565b9150613fe083614089565b9250827fffffffffffffffffffffffffffffffffffffffffffffffffffffffffffffffff038211156140155761401461418e565b5b828201905092915050565b600061402b82614093565b915061403683614093565b92508260ff0382111561404c5761404b61418e565b5b828201905092915050565b600061406282614069565b9050919050565b600073ffffffffffffffffffffffffffffffffffffffff82169050919050565b6000819050919050565b600060ff82169050919050565b82818337600083830152505050565b60005b838110156140cd5780820151818401526020810190506140b2565b838111156140dc576000848401525b50505050565b600060028204905060018216806140fa57607f821691505b6020821081141561410e5761410d6141bd565b5b50919050565b61411d8261421b565b810181811067ffffffffffffffff8211171561413c5761413b6141ec565b5b80604052505050565b600061415082614089565b91507fffffffffffffffffffffffffffffffffffffffffffffffffffffffffffffffff8214156141835761418261418e565b5b600182019050919050565b7f4e487b7100000000000000000000000000000000000000000000000000000000600052601160045260246000fd5b7f4e487b7100000000000000000000000000000000000000000000000000000000600052602260045260246000fd5b7f4e487b7100000000000000000000000000000000000000000000000000000000600052604160045260246000fd5b6000601f19601f8301169050919050565b7f4e6f2066696c657320666f756e6420666f722074686520676976656e206e616d60008201527f6500000000000000000000000000000000000000000000000000000000000000602082015250565b7f5573657220646964206e6f742075706c6f616420612066696c6520776974682060008201527f74686973206e616d650000000000000000000000000000000000000000000000602082015250565b6142d381614089565b81146142de57600080fd5b5056fea264697066735822122085c91e5dbacee5051dd133a4270680ba171e8a825bfae8f85ea5348608eec22a64736f6c63430008040033",
  "linkReferences": {},
  "deployedLinkReferences": {}
}