{
  "_format": "hh-sol-artifact-1",
  "contractName": "Messages",
  "sourceName": "contracts/Messages.sol",
  "abi": [
    {
      "inputs": [],
      "stateMutability": "payable",
      "type": "constructor"
    },
    {
      "anonymous": false,
      "inputs": [
        {
          "indexed": true,
          "internalType": "address",
          "name": "sender",
          "type": "address"
        },
        {
          "indexed": true,
          "internalType": "address",
          "name": "recipient",
          "type": "address"
        },
        {
          "indexed": false,
          "internalType": "string",
          "name": "content",
          "type": "string"
        },
        {
          "indexed": false,
          "internalType": "uint256",
          "name": "timestamp",
          "type": "uint256"
        }
      ],
      "name": "MessageSent",
      "type": "event"
    },
    {
      "inputs": [],
      "name": "getAllMessages",
      "outputs": [
        {
          "components": [
            {
              "internalType": "address",
              "name": "sender",
              "type": "address"
            },
            {
              "internalType": "address",
              "name": "recipient",
              "type": "address"
            },
            {
              "internalType": "string",
              "name": "content",
              "type": "string"
            },
            {
              "internalType": "uint256",
              "name": "timestamp",
              "type": "uint256"
            }
          ],
          "internalType": "struct Messages.Message[]",
          "name": "",
          "type": "tuple[]"
        },
        {
          "components": [
            {
              "internalType": "address",
              "name": "sender",
              "type": "address"
            },
            {
              "internalType": "address",
              "name": "recipient",
              "type": "address"
            },
            {
              "internalType": "string",
              "name": "content",
              "type": "string"
            },
            {
              "internalType": "uint256",
              "name": "timestamp",
              "type": "uint256"
            }
          ],
          "internalType": "struct Messages.Message[]",
          "name": "",
          "type": "tuple[]"
        }
      ],
      "stateMutability": "view",
      "type": "function"
    },
    {
      "inputs": [],
      "name": "getReceivedMessages",
      "outputs": [
        {
          "components": [
            {
              "internalType": "address",
              "name": "sender",
              "type": "address"
            },
            {
              "internalType": "address",
              "name": "recipient",
              "type": "address"
            },
            {
              "internalType": "string",
              "name": "content",
              "type": "string"
            },
            {
              "internalType": "uint256",
              "name": "timestamp",
              "type": "uint256"
            }
          ],
          "internalType": "struct Messages.Message[]",
          "name": "",
          "type": "tuple[]"
        }
      ],
      "stateMutability": "view",
      "type": "function"
    },
    {
      "inputs": [],
      "name": "getSentMessages",
      "outputs": [
        {
          "components": [
            {
              "internalType": "address",
              "name": "sender",
              "type": "address"
            },
            {
              "internalType": "address",
              "name": "recipient",
              "type": "address"
            },
            {
              "internalType": "string",
              "name": "content",
              "type": "string"
            },
            {
              "internalType": "uint256",
              "name": "timestamp",
              "type": "uint256"
            }
          ],
          "internalType": "struct Messages.Message[]",
          "name": "",
          "type": "tuple[]"
        }
      ],
      "stateMutability": "view",
      "type": "function"
    },
    {
      "inputs": [
        {
          "internalType": "address",
          "name": "recipient",
          "type": "address"
        },
        {
          "internalType": "string",
          "name": "content",
          "type": "string"
        }
      ],
      "name": "sendMessage",
      "outputs": [],
      "stateMutability": "nonpayable",
      "type": "function"
    }
  ],
  "bytecode": "0x60806040526200004f6040518060400160405280601e81526020017f436f6e747261637420686173206265656e20636f6e73747275637465642100008152506200009660201b62000b5b1760201c565b33600260006101000a81548173ffffffffffffffffffffffffffffffffffffffff021916908373ffffffffffffffffffffffffffffffffffffffff1602179055506200028e565b6200013681604051602401620000ad919062000207565b6040516020818303038152906040527f41304fac000000000000000000000000000000000000000000000000000000007bffffffffffffffffffffffffffffffffffffffffffffffffffffffff19166020820180517bffffffffffffffffffffffffffffffffffffffffffffffffffffffff83818316178352505050506200013960201b60201c565b50565b6200015f816200015a6200016260201b62000bf4176200018360201b60201c565b60201c565b50565b60006a636f6e736f6c652e6c6f679050600080835160208501845afa505050565b6200019760201b62000c3a17819050919050565b7f4e487b7100000000000000000000000000000000000000000000000000000000600052605160045260246000fd5b6000620001d3826200022b565b620001df818562000236565b9350620001f181856020860162000247565b620001fc816200027d565b840191505092915050565b60006020820190508181036000830152620002238184620001c6565b905092915050565b600081519050919050565b600082825260208201905092915050565b60005b83811015620002675780820151818401526020810190506200024a565b8381111562000277576000848401525b50505050565b6000601f19601f8301169050919050565b61126c806200029e6000396000f3fe608060405234801561001057600080fd5b506004361061004c5760003560e01c80634e9a5c891461005157806353f5e3801461006f578063de6f24bb1461008e578063e9f593f4146100aa575b600080fd5b6100596100c8565b6040516100669190610f68565b60405180910390f35b6100776102ac565b604051610085929190610f8a565b60405180910390f35b6100a860048036038101906100a39190610d89565b61067c565b005b6100b2610978565b6040516100bf9190610f68565b60405180910390f35b6060600160003373ffffffffffffffffffffffffffffffffffffffff1673ffffffffffffffffffffffffffffffffffffffff168152602001908152602001600020805480602002602001604051908101604052809291908181526020016000905b828210156102a357838290600052602060002090600402016040518060800160405290816000820160009054906101000a900473ffffffffffffffffffffffffffffffffffffffff1673ffffffffffffffffffffffffffffffffffffffff1673ffffffffffffffffffffffffffffffffffffffff1681526020016001820160009054906101000a900473ffffffffffffffffffffffffffffffffffffffff1673ffffffffffffffffffffffffffffffffffffffff1673ffffffffffffffffffffffffffffffffffffffff1681526020016002820180546102089061114d565b80601f01602080910402602001604051908101604052809291908181526020018280546102349061114d565b80156102815780601f1061025657610100808354040283529160200191610281565b820191906000526020600020905b81548152906001019060200180831161026457829003601f168201915b5050505050815260200160038201548152505081526020019060010190610129565b50505050905090565b60608060008060003373ffffffffffffffffffffffffffffffffffffffff1673ffffffffffffffffffffffffffffffffffffffff168152602001908152602001600020805480602002602001604051908101604052809291908181526020016000905b8282101561048957838290600052602060002090600402016040518060800160405290816000820160009054906101000a900473ffffffffffffffffffffffffffffffffffffffff1673ffffffffffffffffffffffffffffffffffffffff1673ffffffffffffffffffffffffffffffffffffffff1681526020016001820160009054906101000a900473ffffffffffffffffffffffffffffffffffffffff1673ffffffffffffffffffffffffffffffffffffffff1673ffffffffffffffffffffffffffffffffffffffff1681526020016002820180546103ee9061114d565b80601f016020809104026020016040519081016040528092919081815260200182805461041a9061114d565b80156104675780601f1061043c57610100808354040283529160200191610467565b820191906000526020600020905b81548152906001019060200180831161044a57829003601f168201915b505050505081526020016003820154815250508152602001906001019061030f565b5050505090506000600160003373ffffffffffffffffffffffffffffffffffffffff1673ffffffffffffffffffffffffffffffffffffffff168152602001908152602001600020805480602002602001604051908101604052809291908181526020016000905b8282101561066a57838290600052602060002090600402016040518060800160405290816000820160009054906101000a900473ffffffffffffffffffffffffffffffffffffffff1673ffffffffffffffffffffffffffffffffffffffff1673ffffffffffffffffffffffffffffffffffffffff1681526020016001820160009054906101000a900473ffffffffffffffffffffffffffffffffffffffff1673ffffffffffffffffffffffffffffffffffffffff1673ffffffffffffffffffffffffffffffffffffffff1681526020016002820180546105cf9061114d565b80601f01602080910402602001604051908101604052809291908181526020018280546105fb9061114d565b80156106485780601f1061061d57610100808354040283529160200191610648565b820191906000526020600020905b81548152906001019060200180831161062b57829003601f168201915b50505050508152602001600382015481525050815260200190600101906104f0565b50505050905081819350935050509091565b600060405180608001604052803373ffffffffffffffffffffffffffffffffffffffff1681526020018473ffffffffffffffffffffffffffffffffffffffff1681526020018381526020014281525090506000803373ffffffffffffffffffffffffffffffffffffffff1673ffffffffffffffffffffffffffffffffffffffff16815260200190815260200160002081908060018154018082558091505060019003906000526020600020906004020160009091909190915060008201518160000160006101000a81548173ffffffffffffffffffffffffffffffffffffffff021916908373ffffffffffffffffffffffffffffffffffffffff16021790555060208201518160010160006101000a81548173ffffffffffffffffffffffffffffffffffffffff021916908373ffffffffffffffffffffffffffffffffffffffff16021790555060408201518160020190805190602001906107df929190610c69565b50606082015181600301555050600160008473ffffffffffffffffffffffffffffffffffffffff1673ffffffffffffffffffffffffffffffffffffffff16815260200190815260200160002081908060018154018082558091505060019003906000526020600020906004020160009091909190915060008201518160000160006101000a81548173ffffffffffffffffffffffffffffffffffffffff021916908373ffffffffffffffffffffffffffffffffffffffff16021790555060208201518160010160006101000a81548173ffffffffffffffffffffffffffffffffffffffff021916908373ffffffffffffffffffffffffffffffffffffffff16021790555060408201518160020190805190602001906108ff929190610c69565b506060820151816003015550508273ffffffffffffffffffffffffffffffffffffffff163373ffffffffffffffffffffffffffffffffffffffff167f7e49d574e0305424aa957cb3f69b25f92aa58d53fdee73f05e40019210a70bce844260405161096b929190610fe3565b60405180910390a3505050565b60606000803373ffffffffffffffffffffffffffffffffffffffff1673ffffffffffffffffffffffffffffffffffffffff168152602001908152602001600020805480602002602001604051908101604052809291908181526020016000905b82821015610b5257838290600052602060002090600402016040518060800160405290816000820160009054906101000a900473ffffffffffffffffffffffffffffffffffffffff1673ffffffffffffffffffffffffffffffffffffffff1673ffffffffffffffffffffffffffffffffffffffff1681526020016001820160009054906101000a900473ffffffffffffffffffffffffffffffffffffffff1673ffffffffffffffffffffffffffffffffffffffff1673ffffffffffffffffffffffffffffffffffffffff168152602001600282018054610ab79061114d565b80601f0160208091040260200160405190810160405280929190818152602001828054610ae39061114d565b8015610b305780601f10610b0557610100808354040283529160200191610b30565b820191906000526020600020905b815481529060010190602001808311610b1357829003601f168201915b50505050508152602001600382015481525050815260200190600101906109d8565b50505050905090565b610bf181604051602401610b6f9190610fc1565b6040516020818303038152906040527f41304fac000000000000000000000000000000000000000000000000000000007bffffffffffffffffffffffffffffffffffffffffffffffffffffffff19166020820180517bffffffffffffffffffffffffffffffffffffffffffffffffffffffff8381831617835250505050610c15565b50565b60006a636f6e736f6c652e6c6f679050600080835160208501845afa505050565b610c2c81610c24610bf4610c2f565b63ffffffff16565b50565b610c3a819050919050565b7f4e487b7100000000000000000000000000000000000000000000000000000000600052605160045260246000fd5b828054610c759061114d565b90600052602060002090601f016020900481019282610c975760008555610cde565b82601f10610cb057805160ff1916838001178555610cde565b82800160010185558215610cde579182015b82811115610cdd578251825591602001919060010190610cc2565b5b509050610ceb9190610cef565b5090565b5b80821115610d08576000816000905550600101610cf0565b5090565b6000610d1f610d1a84611038565b611013565b905082815260208101848484011115610d3757600080fd5b610d4284828561110b565b509392505050565b600081359050610d598161121f565b92915050565b600082601f830112610d7057600080fd5b8135610d80848260208601610d0c565b91505092915050565b60008060408385031215610d9c57600080fd5b6000610daa85828601610d4a565b925050602083013567ffffffffffffffff811115610dc757600080fd5b610dd385828601610d5f565b9150509250929050565b6000610de98383610ee7565b905092915050565b610dfa816110cf565b82525050565b6000610e0b82611079565b610e15818561109c565b935083602082028501610e2785611069565b8060005b85811015610e635784840389528151610e448582610ddd565b9450610e4f8361108f565b925060208a01995050600181019050610e2b565b50829750879550505050505092915050565b6000610e8082611084565b610e8a81856110ad565b9350610e9a81856020860161111a565b610ea38161120e565b840191505092915050565b6000610eb982611084565b610ec381856110be565b9350610ed381856020860161111a565b610edc8161120e565b840191505092915050565b6000608083016000830151610eff6000860182610df1565b506020830151610f126020860182610df1565b5060408301518482036040860152610f2a8282610e75565b9150506060830151610f3f6060860182610f4a565b508091505092915050565b610f5381611101565b82525050565b610f6281611101565b82525050565b60006020820190508181036000830152610f828184610e00565b905092915050565b60006040820190508181036000830152610fa48185610e00565b90508181036020830152610fb88184610e00565b90509392505050565b60006020820190508181036000830152610fdb8184610eae565b905092915050565b60006040820190508181036000830152610ffd8185610eae565b905061100c6020830184610f59565b9392505050565b600061101d61102e565b9050611029828261117f565b919050565b6000604051905090565b600067ffffffffffffffff821115611053576110526111df565b5b61105c8261120e565b9050602081019050919050565b6000819050602082019050919050565b600081519050919050565b600081519050919050565b6000602082019050919050565b600082825260208201905092915050565b600082825260208201905092915050565b600082825260208201905092915050565b60006110da826110e1565b9050919050565b600073ffffffffffffffffffffffffffffffffffffffff82169050919050565b6000819050919050565b82818337600083830152505050565b60005b8381101561113857808201518184015260208101905061111d565b83811115611147576000848401525b50505050565b6000600282049050600182168061116557607f821691505b60208210811415611179576111786111b0565b5b50919050565b6111888261120e565b810181811067ffffffffffffffff821117156111a7576111a66111df565b5b80604052505050565b7f4e487b7100000000000000000000000000000000000000000000000000000000600052602260045260246000fd5b7f4e487b7100000000000000000000000000000000000000000000000000000000600052604160045260246000fd5b6000601f19601f8301169050919050565b611228816110cf565b811461123357600080fd5b5056fea2646970667358221220704cdd37f17c9c9a49f30cc46440d69b4a8468c2a11340c4a245849c18e46a6e64736f6c63430008040033",
  "linkReferences": {},
  "deployedLinkReferences": {}
}