{
  "_format": "hh-sol-artifact-1",
  "contractName": "Audits",
  "sourceName": "contracts/Audits.sol",
  "abi": [
    {
      "inputs": [],
      "stateMutability": "payable",
      "type": "constructor"
    },
    {
      "anonymous": false,
      "inputs": [
        {
          "indexed": false,
          "internalType": "uint256",
          "name": "auditNumber",
          "type": "uint256"
        },
        {
          "indexed": true,
          "internalType": "address",
          "name": "creator",
          "type": "address"
        },
        {
          "indexed": false,
          "internalType": "uint256",
          "name": "timestamp",
          "type": "uint256"
        }
      ],
      "name": "AuditCreated",
      "type": "event"
    },
    {
      "anonymous": false,
      "inputs": [
        {
          "indexed": false,
          "internalType": "string",
          "name": "name",
          "type": "string"
        },
        {
          "indexed": false,
          "internalType": "uint256",
          "name": "auditNumber",
          "type": "uint256"
        },
        {
          "indexed": true,
          "internalType": "address",
          "name": "completedBy",
          "type": "address"
        },
        {
          "indexed": false,
          "internalType": "uint256",
          "name": "completionTimestamp",
          "type": "uint256"
        }
      ],
      "name": "MilestoneCompleted",
      "type": "event"
    },
    {
      "anonymous": false,
      "inputs": [
        {
          "indexed": false,
          "internalType": "uint256",
          "name": "auditNumber",
          "type": "uint256"
        },
        {
          "indexed": true,
          "internalType": "address",
          "name": "addedUser",
          "type": "address"
        },
        {
          "indexed": false,
          "internalType": "string",
          "name": "role",
          "type": "string"
        },
        {
          "indexed": false,
          "internalType": "uint256",
          "name": "timestamp",
          "type": "uint256"
        }
      ],
      "name": "ParticipantAdded",
      "type": "event"
    },
    {
      "inputs": [],
      "name": "ROLE_CMS_AGENT",
      "outputs": [
        {
          "internalType": "string",
          "name": "",
          "type": "string"
        }
      ],
      "stateMutability": "view",
      "type": "function"
    },
    {
      "inputs": [],
      "name": "ROLE_PROVIDER",
      "outputs": [
        {
          "internalType": "string",
          "name": "",
          "type": "string"
        }
      ],
      "stateMutability": "view",
      "type": "function"
    },
    {
      "inputs": [
        {
          "internalType": "uint256",
          "name": "_auditNumber",
          "type": "uint256"
        },
        {
          "internalType": "enum Audits.MilestoneType",
          "name": "_milestoneType",
          "type": "uint8"
        }
      ],
      "name": "addMilestone",
      "outputs": [],
      "stateMutability": "nonpayable",
      "type": "function"
    },
    {
      "inputs": [
        {
          "internalType": "address",
          "name": "_participant",
          "type": "address"
        },
        {
          "internalType": "string",
          "name": "_role",
          "type": "string"
        },
        {
          "internalType": "uint256",
          "name": "_auditNumber",
          "type": "uint256"
        }
      ],
      "name": "addParticipant",
      "outputs": [],
      "stateMutability": "nonpayable",
      "type": "function"
    },
    {
      "inputs": [
        {
          "internalType": "address[]",
          "name": "_participants",
          "type": "address[]"
        },
        {
          "internalType": "string[]",
          "name": "_roles",
          "type": "string[]"
        },
        {
          "internalType": "uint256",
          "name": "_auditNumber",
          "type": "uint256"
        }
      ],
      "name": "addParticipants",
      "outputs": [],
      "stateMutability": "nonpayable",
      "type": "function"
    },
    {
      "inputs": [
        {
          "internalType": "uint256",
          "name": "_auditNumber",
          "type": "uint256"
        },
        {
          "internalType": "uint256",
          "name": "_milestoneIndex",
          "type": "uint256"
        }
      ],
      "name": "completeMilestone",
      "outputs": [],
      "stateMutability": "nonpayable",
      "type": "function"
    },
    {
      "inputs": [
        {
          "internalType": "address[]",
          "name": "_participants",
          "type": "address[]"
        },
        {
          "internalType": "string[]",
          "name": "_roles",
          "type": "string[]"
        }
      ],
      "name": "createAudit",
      "outputs": [
        {
          "components": [
            {
              "internalType": "address",
              "name": "creator",
              "type": "address"
            },
            {
              "internalType": "uint256",
              "name": "auditNumber",
              "type": "uint256"
            },
            {
              "internalType": "uint256",
              "name": "timestamp",
              "type": "uint256"
            }
          ],
          "internalType": "struct Audits.Audit",
          "name": "",
          "type": "tuple"
        }
      ],
      "stateMutability": "nonpayable",
      "type": "function"
    },
    {
      "inputs": [],
      "name": "createAuditSingleUser",
      "outputs": [
        {
          "components": [
            {
              "internalType": "address",
              "name": "creator",
              "type": "address"
            },
            {
              "internalType": "uint256",
              "name": "auditNumber",
              "type": "uint256"
            },
            {
              "internalType": "uint256",
              "name": "timestamp",
              "type": "uint256"
            }
          ],
          "internalType": "struct Audits.Audit",
          "name": "",
          "type": "tuple"
        }
      ],
      "stateMutability": "nonpayable",
      "type": "function"
    },
    {
      "inputs": [
        {
          "internalType": "uint256",
          "name": "_auditNumber",
          "type": "uint256"
        }
      ],
      "name": "getAudit",
      "outputs": [
        {
          "components": [
            {
              "internalType": "address",
              "name": "creator",
              "type": "address"
            },
            {
              "internalType": "uint256",
              "name": "auditNumber",
              "type": "uint256"
            },
            {
              "internalType": "uint256",
              "name": "timestamp",
              "type": "uint256"
            }
          ],
          "internalType": "struct Audits.Audit",
          "name": "",
          "type": "tuple"
        }
      ],
      "stateMutability": "view",
      "type": "function"
    },
    {
      "inputs": [
        {
          "internalType": "uint256",
          "name": "_auditNumber",
          "type": "uint256"
        }
      ],
      "name": "getAuditState",
      "outputs": [
        {
          "internalType": "string",
          "name": "",
          "type": "string"
        }
      ],
      "stateMutability": "view",
      "type": "function"
    },
    {
      "inputs": [
        {
          "internalType": "uint256[]",
          "name": "_auditNumbers",
          "type": "uint256[]"
        }
      ],
      "name": "getAuditsByNumbers",
      "outputs": [
        {
          "components": [
            {
              "internalType": "address",
              "name": "creator",
              "type": "address"
            },
            {
              "internalType": "uint256",
              "name": "auditNumber",
              "type": "uint256"
            },
            {
              "internalType": "uint256",
              "name": "timestamp",
              "type": "uint256"
            }
          ],
          "internalType": "struct Audits.Audit[]",
          "name": "",
          "type": "tuple[]"
        }
      ],
      "stateMutability": "view",
      "type": "function"
    },
    {
      "inputs": [],
      "name": "getAuditsForParticipant",
      "outputs": [
        {
          "components": [
            {
              "internalType": "address",
              "name": "creator",
              "type": "address"
            },
            {
              "internalType": "uint256",
              "name": "auditNumber",
              "type": "uint256"
            },
            {
              "internalType": "uint256",
              "name": "timestamp",
              "type": "uint256"
            }
          ],
          "internalType": "struct Audits.Audit[]",
          "name": "",
          "type": "tuple[]"
        }
      ],
      "stateMutability": "view",
      "type": "function"
    },
    {
      "inputs": [
        {
          "internalType": "uint256",
          "name": "_auditNumber",
          "type": "uint256"
        }
      ],
      "name": "getMilestones",
      "outputs": [
        {
          "components": [
            {
              "internalType": "enum Audits.MilestoneType",
              "name": "milestoneType",
              "type": "uint8"
            },
            {
              "internalType": "address",
              "name": "assignedTo",
              "type": "address"
            },
            {
              "internalType": "address",
              "name": "completedBy",
              "type": "address"
            },
            {
              "internalType": "bool",
              "name": "completed",
              "type": "bool"
            },
            {
              "internalType": "uint256",
              "name": "dueDate",
              "type": "uint256"
            },
            {
              "internalType": "uint256",
              "name": "completionTimestamp",
              "type": "uint256"
            }
          ],
          "internalType": "struct Audits.Milestone[]",
          "name": "",
          "type": "tuple[]"
        }
      ],
      "stateMutability": "view",
      "type": "function"
    },
    {
      "inputs": [
        {
          "internalType": "uint256",
          "name": "_auditNumber",
          "type": "uint256"
        },
        {
          "internalType": "string",
          "name": "_role",
          "type": "string"
        }
      ],
      "name": "getParticipantByRole",
      "outputs": [
        {
          "components": [
            {
              "internalType": "address",
              "name": "userAddress",
              "type": "address"
            },
            {
              "internalType": "string",
              "name": "role",
              "type": "string"
            }
          ],
          "internalType": "struct Audits.Participant",
          "name": "",
          "type": "tuple"
        }
      ],
      "stateMutability": "view",
      "type": "function"
    },
    {
      "inputs": [
        {
          "internalType": "address",
          "name": "_participant",
          "type": "address"
        },
        {
          "internalType": "uint256",
          "name": "_auditNumber",
          "type": "uint256"
        }
      ],
      "name": "getParticipantProfileByAudit",
      "outputs": [
        {
          "components": [
            {
              "internalType": "address",
              "name": "userAddress",
              "type": "address"
            },
            {
              "internalType": "string",
              "name": "role",
              "type": "string"
            }
          ],
          "internalType": "struct Audits.Participant",
          "name": "",
          "type": "tuple"
        }
      ],
      "stateMutability": "view",
      "type": "function"
    },
    {
      "inputs": [
        {
          "internalType": "uint256",
          "name": "_auditNumber",
          "type": "uint256"
        }
      ],
      "name": "getParticipants",
      "outputs": [
        {
          "components": [
            {
              "internalType": "address",
              "name": "userAddress",
              "type": "address"
            },
            {
              "internalType": "string",
              "name": "role",
              "type": "string"
            }
          ],
          "internalType": "struct Audits.Participant[]",
          "name": "",
          "type": "tuple[]"
        }
      ],
      "stateMutability": "view",
      "type": "function"
    },
    {
      "inputs": [
        {
          "internalType": "uint256",
          "name": "_auditNumber",
          "type": "uint256"
        }
      ],
      "name": "getUserParticipantProfileByAudit",
      "outputs": [
        {
          "components": [
            {
              "internalType": "address",
              "name": "userAddress",
              "type": "address"
            },
            {
              "internalType": "string",
              "name": "role",
              "type": "string"
            }
          ],
          "internalType": "struct Audits.Participant",
          "name": "",
          "type": "tuple"
        }
      ],
      "stateMutability": "view",
      "type": "function"
    },
    {
      "inputs": [],
      "name": "getUserParticipantProfiles",
      "outputs": [
        {
          "components": [
            {
              "internalType": "address",
              "name": "userAddress",
              "type": "address"
            },
            {
              "internalType": "string",
              "name": "role",
              "type": "string"
            }
          ],
          "internalType": "struct Audits.Participant[]",
          "name": "",
          "type": "tuple[]"
        }
      ],
      "stateMutability": "view",
      "type": "function"
    },
    {
      "inputs": [
        {
          "internalType": "uint256",
          "name": "_auditNumber",
          "type": "uint256"
        },
        {
          "internalType": "string",
          "name": "newState",
          "type": "string"
        }
      ],
      "name": "setAuditState",
      "outputs": [],
      "stateMutability": "nonpayable",
      "type": "function"
    },
    {
      "inputs": [
        {
          "internalType": "uint256",
          "name": "_auditNumber",
          "type": "uint256"
        },
        {
          "internalType": "uint256",
          "name": "_milestoneIndex",
          "type": "uint256"
        }
      ],
      "name": "setCompletionTimestamp",
      "outputs": [],
      "stateMutability": "nonpayable",
      "type": "function"
    }
  ],
  "bytecode": "0x608060405260008055620000536040518060400160405280601e81526020017f436f6e747261637420686173206265656e20636f6e73747275637465642100008152506200009a60201b6200388f1760201c565b33600860006101000a81548173ffffffffffffffffffffffffffffffffffffffff021916908373ffffffffffffffffffffffffffffffffffffffff16021790555062000292565b6200013a81604051602401620000b191906200020b565b6040516020818303038152906040527f41304fac000000000000000000000000000000000000000000000000000000007bffffffffffffffffffffffffffffffffffffffffffffffffffffffff19166020820180517bffffffffffffffffffffffffffffffffffffffffffffffffffffffff83818316178352505050506200013d60201b60201c565b50565b62000163816200015e6200016660201b62003928176200018760201b60201c565b60201c565b50565b60006a636f6e736f6c652e6c6f679050600080835160208501845afa505050565b6200019b60201b6200431d17819050919050565b7f4e487b7100000000000000000000000000000000000000000000000000000000600052605160045260246000fd5b6000620001d7826200022f565b620001e381856200023a565b9350620001f58185602086016200024b565b620002008162000281565b840191505092915050565b60006020820190508181036000830152620002278184620001ca565b905092915050565b600081519050919050565b600082825260208201905092915050565b60005b838110156200026b5780820151818401526020810190506200024e565b838111156200027b576000848401525b50505050565b6000601f19601f8301169050919050565b615ff180620002a26000396000f3fe608060405234801561001057600080fd5b506004361061012c5760003560e01c8063701ffdc0116100ad578063cc76b41d11610071578063cc76b41d1461037b578063dc9800da14610397578063e549908f146103b5578063e756266d146103e5578063f326206b146104035761012c565b8063701ffdc0146102c3578063741f1855146102f35780637fe3994714610311578063bad716cd1461032d578063c1e3bd3e1461034b5761012c565b80633ca428fb116100f45780633ca428fb146101fb57806342c549c01461021757806342cad87b1461024757806351257b3b146102775780635f63e8e0146102a75761012c565b8063061c3d12146101315780630783c2ef1461014d57806317bf37a31461017d5780631af0ab1d146101ad5780632b9af8a7146101cb575b600080fd5b61014b600480360381019061014691906148d1565b61041f565b005b610167600480360381019061016291906148a8565b610ac1565b60405161017491906151f1565b60405180910390f35b610197600480360381019061019291906148a8565b610bc9565b6040516101a49190615471565b60405180910390f35b6101b5610ca8565b6040516101c291906151f1565b60405180910390f35b6101e560048036038101906101e0919061490d565b610ce1565b6040516101f2919061548c565b60405180910390f35b61021560048036038101906102109190614961565b610f18565b005b610231600480360381019061022c91906148a8565b6112d3565b60405161023e91906151ad565b60405180910390f35b610261600480360381019061025c9190614867565b6114a7565b60405161026e919061518b565b60405180910390f35b610291600480360381019061028c91906148a8565b611672565b60405161029e919061548c565b60405180910390f35b6102c160048036038101906102bc91906147e8565b61168b565b005b6102dd60048036038101906102d8919061477c565b611827565b6040516102ea9190615471565b60405180910390f35b6102fb611fff565b604051610308919061518b565b60405180910390f35b61032b6004803603810190610326919061490d565b61218a565b005b6103356122b5565b60405161034291906151f1565b60405180910390f35b610365600480360381019061036091906148a8565b6122ee565b60405161037291906151cf565b60405180910390f35b610395600480360381019061039091906146d9565b6124a1565b005b61039f612a0f565b6040516103ac9190615471565b60405180910390f35b6103cf60048036038101906103ca9190614740565b612e8d565b6040516103dc919061548c565b60405180910390f35b6103ed6130f1565b6040516103fa91906151cf565b60405180910390f35b61041d60048036038101906104189190614961565b6132bd565b005b61042882613949565b610467576040517f08c379a000000000000000000000000000000000000000000000000000000000815260040161045e90615291565b60405180910390fd5b6000600260008481526020019081526020016000208054905011156105cb57600060026000848152602001908152602001600020600160026000868152602001908152602001600020805490506104be9190615784565b815481106104f5577f4e487b7100000000000000000000000000000000000000000000000000000000600052603260045260246000fd5b906000526020600020906004020160000160009054906101000a900460ff16905081600281111561054f577f4e487b7100000000000000000000000000000000000000000000000000000000600052602160045260246000fd5b816002811115610588577f4e487b7100000000000000000000000000000000000000000000000000000000600052602160045260246000fd5b14156105c9576040517f08c379a00000000000000000000000000000000000000000000000000000000081526004016105c0906152f1565b60405180910390fd5b505b6000806002811115610606577f4e487b7100000000000000000000000000000000000000000000000000000000600052602160045260246000fd5b82600281111561063f577f4e487b7100000000000000000000000000000000000000000000000000000000600052602160045260246000fd5b14156106ce576000610686846040518060400160405280600981526020017f434d53204167656e740000000000000000000000000000000000000000000000815250610ce1565b9050600073ffffffffffffffffffffffffffffffffffffffff16816000015173ffffffffffffffffffffffffffffffffffffffff16146106c857806000015191505b506108cf565b60016002811115610708577f4e487b7100000000000000000000000000000000000000000000000000000000600052602160045260246000fd5b826002811115610741577f4e487b7100000000000000000000000000000000000000000000000000000000600052602160045260246000fd5b14156107d0576000610788846040518060400160405280600881526020017f50726f7669646572000000000000000000000000000000000000000000000000815250610ce1565b9050600073ffffffffffffffffffffffffffffffffffffffff16816000015173ffffffffffffffffffffffffffffffffffffffff16146107ca57806000015191505b506108ce565b600280811115610809577f4e487b7100000000000000000000000000000000000000000000000000000000600052602160045260246000fd5b826002811115610842577f4e487b7100000000000000000000000000000000000000000000000000000000600052602160045260246000fd5b14156108cd576000610889846040518060400160405280600981526020017f434d53204167656e740000000000000000000000000000000000000000000000815250610ce1565b9050600073ffffffffffffffffffffffffffffffffffffffff16816000015173ffffffffffffffffffffffffffffffffffffffff16146108cb57806000015191505b505b5b5b600260008481526020019081526020016000206040518060c00160405280846002811115610926577f4e487b7100000000000000000000000000000000000000000000000000000000600052602160045260246000fd5b81526020018373ffffffffffffffffffffffffffffffffffffffff168152602001600073ffffffffffffffffffffffffffffffffffffffff168152602001600015158152602001600181526020016000815250908060018154018082558091505060019003906000526020600020906004020160009091909190915060008201518160000160006101000a81548160ff021916908360028111156109f3577f4e487b7100000000000000000000000000000000000000000000000000000000600052602160045260246000fd5b021790555060208201518160000160016101000a81548173ffffffffffffffffffffffffffffffffffffffff021916908373ffffffffffffffffffffffffffffffffffffffff16021790555060408201518160010160006101000a81548173ffffffffffffffffffffffffffffffffffffffff021916908373ffffffffffffffffffffffffffffffffffffffff16021790555060608201518160010160146101000a81548160ff0219169083151502179055506080820151816002015560a082015181600301555050505050565b60606000600760008481526020019081526020016000208054610ae39061589b565b90501415610b26576040517f08c379a0000000000000000000000000000000000000000000000000000000008152600401610b1d90615431565b60405180910390fd5b600760008381526020019081526020016000208054610b449061589b565b80601f0160208091040260200160405190810160405280929190818152602001828054610b709061589b565b8015610bbd5780601f10610b9257610100808354040283529160200191610bbd565b820191906000526020600020905b815481529060010190602001808311610ba057829003601f168201915b50505050509050919050565b610bd161434c565b610bda82613949565b610c19576040517f08c379a0000000000000000000000000000000000000000000000000000000008152600401610c1090615291565b60405180910390fd5b600160008381526020019081526020016000206040518060600160405290816000820160009054906101000a900473ffffffffffffffffffffffffffffffffffffffff1673ffffffffffffffffffffffffffffffffffffffff1673ffffffffffffffffffffffffffffffffffffffff168152602001600182015481526020016002820154815250509050919050565b6040518060400160405280600881526020017f50726f766964657200000000000000000000000000000000000000000000000081525081565b610ce9614383565b600060036000858152602001908152602001600020905060005b8180549050811015610ed2578380519060200120828281548110610d50577f4e487b7100000000000000000000000000000000000000000000000000000000600052603260045260246000fd5b9060005260206000209060020201600101604051610d6e91906150f9565b60405180910390201415610ebf57818181548110610db5577f4e487b7100000000000000000000000000000000000000000000000000000000600052603260045260246000fd5b90600052602060002090600202016040518060400160405290816000820160009054906101000a900473ffffffffffffffffffffffffffffffffffffffff1673ffffffffffffffffffffffffffffffffffffffff1673ffffffffffffffffffffffffffffffffffffffff168152602001600182018054610e349061589b565b80601f0160208091040260200160405190810160405280929190818152602001828054610e609061589b565b8015610ead5780601f10610e8257610100808354040283529160200191610ead565b820191906000526020600020905b815481529060010190602001808311610e9057829003601f168201915b50505050508152505092505050610f12565b8080610eca906158fe565b915050610d03565b506040518060400160405280600073ffffffffffffffffffffffffffffffffffffffff168152602001604051806020016040528060008152508152509150505b92915050565b60026000838152602001908152602001600020805490508110610f70576040517f08c379a0000000000000000000000000000000000000000000000000000000008152600401610f67906152b1565b60405180910390fd5b6000600260008481526020019081526020016000208281548110610fbd577f4e487b7100000000000000000000000000000000000000000000000000000000600052603260045260246000fd5b906000526020600020906004020190508060010160149054906101000a900460ff161561101f576040517f08c379a000000000000000000000000000000000000000000000000000000000815260040161101690615391565b60405180910390fd5b3373ffffffffffffffffffffffffffffffffffffffff168160000160019054906101000a900473ffffffffffffffffffffffffffffffffffffffff1673ffffffffffffffffffffffffffffffffffffffff1614806110de57503373ffffffffffffffffffffffffffffffffffffffff166001600085815260200190815260200160002060000160009054906101000a900473ffffffffffffffffffffffffffffffffffffffff1673ffffffffffffffffffffffffffffffffffffffff16145b61111d576040517f08c379a0000000000000000000000000000000000000000000000000000000008152600401611114906153f1565b60405180910390fd5b600082146112825760011515600260008581526020019081526020016000206001846111499190615784565b81548110611180577f4e487b7100000000000000000000000000000000000000000000000000000000600052603260045260246000fd5b906000526020600020906004020160010160149054906101000a900460ff16151514611220600260008681526020019081526020016000206001856111c59190615784565b815481106111fc577f4e487b7100000000000000000000000000000000000000000000000000000000600052603260045260246000fd5b906000526020600020906004020160000160009054906101000a900460ff1661396b565b6040516020016112309190615110565b60405160208183030381529060405290611280576040517f08c379a000000000000000000000000000000000000000000000000000000000815260040161127791906151f1565b60405180910390fd5b505b428160030181905550338160010160006101000a81548173ffffffffffffffffffffffffffffffffffffffff021916908373ffffffffffffffffffffffffffffffffffffffff160217905550505050565b606060026000838152602001908152602001600020805480602002602001604051908101604052809291908181526020016000905b8282101561149c57838290600052602060002090600402016040518060c00160405290816000820160009054906101000a900460ff166002811115611376577f4e487b7100000000000000000000000000000000000000000000000000000000600052602160045260246000fd5b60028111156113ae577f4e487b7100000000000000000000000000000000000000000000000000000000600052602160045260246000fd5b81526020016000820160019054906101000a900473ffffffffffffffffffffffffffffffffffffffff1673ffffffffffffffffffffffffffffffffffffffff1673ffffffffffffffffffffffffffffffffffffffff1681526020016001820160009054906101000a900473ffffffffffffffffffffffffffffffffffffffff1673ffffffffffffffffffffffffffffffffffffffff1673ffffffffffffffffffffffffffffffffffffffff1681526020016001820160149054906101000a900460ff161515151581526020016002820154815260200160038201548152505081526020019060010190611308565b505050509050919050565b60606000825167ffffffffffffffff8111156114ec577f4e487b7100000000000000000000000000000000000000000000000000000000600052604160045260246000fd5b60405190808252806020026020018201604052801561152557816020015b61151261434c565b81526020019060019003908161150a5790505b50905060005b835181101561166857600084828151811061156f577f4e487b7100000000000000000000000000000000000000000000000000000000600052603260045260246000fd5b6020026020010151905061158281613949565b1561165457600160008281526020019081526020016000206040518060600160405290816000820160009054906101000a900473ffffffffffffffffffffffffffffffffffffffff1673ffffffffffffffffffffffffffffffffffffffff1673ffffffffffffffffffffffffffffffffffffffff16815260200160018201548152602001600282015481525050838381518110611648577f4e487b7100000000000000000000000000000000000000000000000000000000600052603260045260246000fd5b60200260200101819052505b508080611660906158fe565b91505061152b565b5080915050919050565b61167a614383565b6116843383612e8d565b9050919050565b61169481613949565b6116d3576040517f08c379a00000000000000000000000000000000000000000000000000000000081526004016116ca90615291565b60405180910390fd5b6001600082815260200190815260200160002060000160009054906101000a900473ffffffffffffffffffffffffffffffffffffffff1673ffffffffffffffffffffffffffffffffffffffff163373ffffffffffffffffffffffffffffffffffffffff1614611777576040517f08c379a000000000000000000000000000000000000000000000000000000000815260040161176e906152d1565b60405180910390fd5b60005b83518110156118215761180e8482815181106117bf577f4e487b7100000000000000000000000000000000000000000000000000000000600052603260045260246000fd5b6020026020010151848381518110611800577f4e487b7100000000000000000000000000000000000000000000000000000000600052603260045260246000fd5b6020026020010151846124a1565b8080611819906158fe565b91505061177a565b50505050565b61182f61434c565b8151835114611873576040517f08c379a000000000000000000000000000000000000000000000000000000000815260040161186a90615271565b60405180910390fd5b600061187d613bce565b9050600060405180606001604052803373ffffffffffffffffffffffffffffffffffffffff168152602001838152602001428152509050806001600084815260200190815260200160002060008201518160000160006101000a81548173ffffffffffffffffffffffffffffffffffffffff021916908373ffffffffffffffffffffffffffffffffffffffff160217905550602082015181600101556040820151816002015590505060005b8551811015611d0757600086828151811061196d577f4e487b7100000000000000000000000000000000000000000000000000000000600052603260045260246000fd5b60200260200101519050600060405180604001604052808373ffffffffffffffffffffffffffffffffffffffff1681526020018885815181106119d9577f4e487b7100000000000000000000000000000000000000000000000000000000600052603260045260246000fd5b602002602001015181525090506003600086815260200190815260200160002081908060018154018082558091505060019003906000526020600020906002020160009091909190915060008201518160000160006101000a81548173ffffffffffffffffffffffffffffffffffffffff021916908373ffffffffffffffffffffffffffffffffffffffff1602179055506020820151816001019080519060200190611a869291906143b3565b5050503373ffffffffffffffffffffffffffffffffffffffff168273ffffffffffffffffffffffffffffffffffffffff1614611cf257600460008373ffffffffffffffffffffffffffffffffffffffff1673ffffffffffffffffffffffffffffffffffffffff16815260200190815260200160002084908060018154018082558091505060019003906000526020600020906003020160009091909190915060008201518160000160006101000a81548173ffffffffffffffffffffffffffffffffffffffff021916908373ffffffffffffffffffffffffffffffffffffffff16021790555060208201518160010155604082015181600201555050611b8b82613c36565b611c5f57600560008373ffffffffffffffffffffffffffffffffffffffff1673ffffffffffffffffffffffffffffffffffffffff16815260200190815260200160002081908060018154018082558091505060019003906000526020600020906002020160009091909190915060008201518160000160006101000a81548173ffffffffffffffffffffffffffffffffffffffff021916908373ffffffffffffffffffffffffffffffffffffffff1602179055506020820151816001019080519060200190611c5b9291906143b3565b5050505b3373ffffffffffffffffffffffffffffffffffffffff167f719cb888a3e60b3b895d414f551c6d07e61a409c0264cf29ecf70840b5da9c2a86898681518110611cd1577f4e487b7100000000000000000000000000000000000000000000000000000000600052603260045260246000fd5b602002602001015142604051611ce9939291906154ae565b60405180910390a25b50508080611cff906158fe565b915050611929565b50600060405180604001604052803373ffffffffffffffffffffffffffffffffffffffff1681526020016040518060400160405280600581526020017f41646d696e00000000000000000000000000000000000000000000000000000081525081525090506003600084815260200190815260200160002081908060018154018082558091505060019003906000526020600020906002020160009091909190915060008201518160000160006101000a81548173ffffffffffffffffffffffffffffffffffffffff021916908373ffffffffffffffffffffffffffffffffffffffff1602179055506020820151816001019080519060200190611e0c9291906143b3565b505050600460003373ffffffffffffffffffffffffffffffffffffffff1673ffffffffffffffffffffffffffffffffffffffff16815260200190815260200160002082908060018154018082558091505060019003906000526020600020906003020160009091909190915060008201518160000160006101000a81548173ffffffffffffffffffffffffffffffffffffffff021916908373ffffffffffffffffffffffffffffffffffffffff160217905550602082015181600101556040820151816002015550503373ffffffffffffffffffffffffffffffffffffffff167f719cb888a3e60b3b895d414f551c6d07e61a409c0264cf29ecf70840b5da9c2a8442604051611f1d9291906154ec565b60405180910390a26040518060400160405280600681526020017f4d616e75616c0000000000000000000000000000000000000000000000000000815250600760008581526020019081526020016000209080519060200190611f819291906143b3565b50611f8d83600061041f565b611f9883600161041f565b611fa383600261041f565b3373ffffffffffffffffffffffffffffffffffffffff167f327a5b944c7e3d99b56101363c643b4011d11a95b51582ff280e7c7d0cf2ed8e8442604051611feb929190615528565b60405180910390a281935050505092915050565b60606000600460003373ffffffffffffffffffffffffffffffffffffffff1673ffffffffffffffffffffffffffffffffffffffff1681526020019081526020016000208054905011612086576040517f08c379a000000000000000000000000000000000000000000000000000000000815260040161207d906153b1565b60405180910390fd5b600460003373ffffffffffffffffffffffffffffffffffffffff1673ffffffffffffffffffffffffffffffffffffffff168152602001908152602001600020805480602002602001604051908101604052809291908181526020016000905b8282101561218157838290600052602060002090600302016040518060600160405290816000820160009054906101000a900473ffffffffffffffffffffffffffffffffffffffff1673ffffffffffffffffffffffffffffffffffffffff1673ffffffffffffffffffffffffffffffffffffffff16815260200160018201548152602001600282015481525050815260200190600101906120e5565b50505050905090565b6000600160008481526020019081526020016000206040518060600160405290816000820160009054906101000a900473ffffffffffffffffffffffffffffffffffffffff1673ffffffffffffffffffffffffffffffffffffffff1673ffffffffffffffffffffffffffffffffffffffff168152602001600182015481526020016002820154815250509050806000015173ffffffffffffffffffffffffffffffffffffffff163373ffffffffffffffffffffffffffffffffffffffff1614612288576040517f08c379a000000000000000000000000000000000000000000000000000000000815260040161227f90615311565b60405180910390fd5b816007600085815260200190815260200160002090805190602001906122af9291906143b3565b50505050565b6040518060400160405280600981526020017f434d53204167656e74000000000000000000000000000000000000000000000081525081565b60606000600360008481526020019081526020016000208054905011612349576040517f08c379a000000000000000000000000000000000000000000000000000000000815260040161234090615351565b60405180910390fd5b60036000838152602001908152602001600020805480602002602001604051908101604052809291908181526020016000905b8282101561249657838290600052602060002090600202016040518060400160405290816000820160009054906101000a900473ffffffffffffffffffffffffffffffffffffffff1673ffffffffffffffffffffffffffffffffffffffff1673ffffffffffffffffffffffffffffffffffffffff1681526020016001820180546124059061589b565b80601f01602080910402602001604051908101604052809291908181526020018280546124319061589b565b801561247e5780601f106124535761010080835404028352916020019161247e565b820191906000526020600020905b81548152906001019060200180831161246157829003601f168201915b5050505050815250508152602001906001019061237c565b505050509050919050565b6124aa81613949565b6124e9576040517f08c379a00000000000000000000000000000000000000000000000000000000081526004016124e090615291565b60405180910390fd5b6001600082815260200190815260200160002060000160009054906101000a900473ffffffffffffffffffffffffffffffffffffffff1673ffffffffffffffffffffffffffffffffffffffff163373ffffffffffffffffffffffffffffffffffffffff161461258d576040517f08c379a0000000000000000000000000000000000000000000000000000000008152600401612584906152d1565b60405180910390fd5b6040518060400160405280600581526020017f41646d696e0000000000000000000000000000000000000000000000000000008152508051906020012082805190602001201415612613576040517f08c379a000000000000000000000000000000000000000000000000000000000815260040161260a90615371565b60405180910390fd5b61261d8382613c84565b1561265d576040517f08c379a0000000000000000000000000000000000000000000000000000000008152600401612654906153d1565b60405180910390fd5b600060405180604001604052808573ffffffffffffffffffffffffffffffffffffffff1681526020018481525090506003600083815260200190815260200160002081908060018154018082558091505060019003906000526020600020906002020160009091909190915060008201518160000160006101000a81548173ffffffffffffffffffffffffffffffffffffffff021916908373ffffffffffffffffffffffffffffffffffffffff160217905550602082015181600101908051906020019061272c9291906143b3565b505050600460008573ffffffffffffffffffffffffffffffffffffffff1673ffffffffffffffffffffffffffffffffffffffff1681526020019081526020016000206001600084815260200190815260200160002090806001815401808255809150506001900390600052602060002090600302016000909190919091506000820160009054906101000a900473ffffffffffffffffffffffffffffffffffffffff168160000160006101000a81548173ffffffffffffffffffffffffffffffffffffffff021916908373ffffffffffffffffffffffffffffffffffffffff160217905550600182015481600101556002820154816002015550506040518060400160405280600981526020017f434d53204167656e740000000000000000000000000000000000000000000000815250805190602001208380519060200120141561288f5761287e82600086613e89565b61288a82600286613e89565b6128e8565b6040518060400160405280600881526020017f50726f766964657200000000000000000000000000000000000000000000000081525080519060200120838051906020012014156128e7576128e682600186613e89565b5b5b600560008573ffffffffffffffffffffffffffffffffffffffff1673ffffffffffffffffffffffffffffffffffffffff16815260200190815260200160002081908060018154018082558091505060019003906000526020600020906002020160009091909190915060008201518160000160006101000a81548173ffffffffffffffffffffffffffffffffffffffff021916908373ffffffffffffffffffffffffffffffffffffffff16021790555060208201518160010190805190602001906129b49291906143b3565b5050508373ffffffffffffffffffffffffffffffffffffffff167f719cb888a3e60b3b895d414f551c6d07e61a409c0264cf29ecf70840b5da9c2a838542604051612a01939291906154ae565b60405180910390a250505050565b612a1761434c565b6000612a21613bce565b9050600060405180606001604052803373ffffffffffffffffffffffffffffffffffffffff168152602001838152602001428152509050806001600084815260200190815260200160002060008201518160000160006101000a81548173ffffffffffffffffffffffffffffffffffffffff021916908373ffffffffffffffffffffffffffffffffffffffff16021790555060208201518160010155604082015181600201559050506040518060400160405280600681526020017f4d616e75616c0000000000000000000000000000000000000000000000000000815250600760008481526020019081526020016000209080519060200190612b269291906143b3565b50600060405180604001604052803373ffffffffffffffffffffffffffffffffffffffff1681526020016040518060400160405280600581526020017f41646d696e00000000000000000000000000000000000000000000000000000081525081525090506003600084815260200190815260200160002081908060018154018082558091505060019003906000526020600020906002020160009091909190915060008201518160000160006101000a81548173ffffffffffffffffffffffffffffffffffffffff021916908373ffffffffffffffffffffffffffffffffffffffff1602179055506020820151816001019080519060200190612c2b9291906143b3565b505050600460003373ffffffffffffffffffffffffffffffffffffffff1673ffffffffffffffffffffffffffffffffffffffff16815260200190815260200160002082908060018154018082558091505060019003906000526020600020906003020160009091909190915060008201518160000160006101000a81548173ffffffffffffffffffffffffffffffffffffffff021916908373ffffffffffffffffffffffffffffffffffffffff16021790555060208201518160010155604082015181600201555050600560003373ffffffffffffffffffffffffffffffffffffffff1673ffffffffffffffffffffffffffffffffffffffff16815260200190815260200160002081908060018154018082558091505060019003906000526020600020906002020160009091909190915060008201518160000160006101000a81548173ffffffffffffffffffffffffffffffffffffffff021916908373ffffffffffffffffffffffffffffffffffffffff1602179055506020820151816001019080519060200190612dc09291906143b3565b5050503373ffffffffffffffffffffffffffffffffffffffff167f719cb888a3e60b3b895d414f551c6d07e61a409c0264cf29ecf70840b5da9c2a8442604051612e0b9291906154ec565b60405180910390a2612e1e83600061041f565b612e2983600161041f565b612e3483600261041f565b3373ffffffffffffffffffffffffffffffffffffffff167f327a5b944c7e3d99b56101363c643b4011d11a95b51582ff280e7c7d0cf2ed8e8442604051612e7c929190615528565b60405180910390a281935050505090565b612e95614383565b600060036000848152602001908152602001600020905060005b81805490508110156130af578473ffffffffffffffffffffffffffffffffffffffff16828281548110612f0b577f4e487b7100000000000000000000000000000000000000000000000000000000600052603260045260246000fd5b906000526020600020906002020160000160009054906101000a900473ffffffffffffffffffffffffffffffffffffffff1673ffffffffffffffffffffffffffffffffffffffff16141561309c57818181548110612f92577f4e487b7100000000000000000000000000000000000000000000000000000000600052603260045260246000fd5b90600052602060002090600202016040518060400160405290816000820160009054906101000a900473ffffffffffffffffffffffffffffffffffffffff1673ffffffffffffffffffffffffffffffffffffffff1673ffffffffffffffffffffffffffffffffffffffff1681526020016001820180546130119061589b565b80601f016020809104026020016040519081016040528092919081815260200182805461303d9061589b565b801561308a5780601f1061305f5761010080835404028352916020019161308a565b820191906000526020600020905b81548152906001019060200180831161306d57829003601f168201915b505050505081525050925050506130eb565b80806130a7906158fe565b915050612eaf565b506040517f08c379a00000000000000000000000000000000000000000000000000000000081526004016130e290615251565b60405180910390fd5b92915050565b60606130fc33613c36565b61313b576040517f08c379a000000000000000000000000000000000000000000000000000000000815260040161313290615411565b60405180910390fd5b600560003373ffffffffffffffffffffffffffffffffffffffff1673ffffffffffffffffffffffffffffffffffffffff168152602001908152602001600020805480602002602001604051908101604052809291908181526020016000905b828210156132b457838290600052602060002090600202016040518060400160405290816000820160009054906101000a900473ffffffffffffffffffffffffffffffffffffffff1673ffffffffffffffffffffffffffffffffffffffff1673ffffffffffffffffffffffffffffffffffffffff1681526020016001820180546132239061589b565b80601f016020809104026020016040519081016040528092919081815260200182805461324f9061589b565b801561329c5780601f106132715761010080835404028352916020019161329c565b820191906000526020600020905b81548152906001019060200180831161327f57829003601f168201915b5050505050815250508152602001906001019061319a565b50505050905090565b60026000838152602001908152602001600020805490508110613315576040517f08c379a000000000000000000000000000000000000000000000000000000000815260040161330c906152b1565b60405180910390fd5b6000600260008481526020019081526020016000208281548110613362577f4e487b7100000000000000000000000000000000000000000000000000000000600052603260045260246000fd5b906000526020600020906004020190508060010160149054906101000a900460ff16156133c4576040517f08c379a00000000000000000000000000000000000000000000000000000000081526004016133bb90615391565b60405180910390fd5b3373ffffffffffffffffffffffffffffffffffffffff168160000160019054906101000a900473ffffffffffffffffffffffffffffffffffffffff1673ffffffffffffffffffffffffffffffffffffffff16148061348357503373ffffffffffffffffffffffffffffffffffffffff166001600085815260200190815260200160002060000160009054906101000a900473ffffffffffffffffffffffffffffffffffffffff1673ffffffffffffffffffffffffffffffffffffffff16145b8061356957506040518060400160405280600981526020017f53656d692d4175746f000000000000000000000000000000000000000000000081525080519060200120600760008581526020019081526020016000206040516134e691906150f9565b604051809103902014801561356857503373ffffffffffffffffffffffffffffffffffffffff1661354c846040518060400160405280600981526020017f434d53204167656e740000000000000000000000000000000000000000000000815250610ce1565b6000015173ffffffffffffffffffffffffffffffffffffffff16145b5b6135a8576040517f08c379a000000000000000000000000000000000000000000000000000000000815260040161359f906153f1565b60405180910390fd5b6000821461370d5760011515600260008581526020019081526020016000206001846135d49190615784565b8154811061360b577f4e487b7100000000000000000000000000000000000000000000000000000000600052603260045260246000fd5b906000526020600020906004020160010160149054906101000a900460ff161515146136ab600260008681526020019081526020016000206001856136509190615784565b81548110613687577f4e487b7100000000000000000000000000000000000000000000000000000000600052603260045260246000fd5b906000526020600020906004020160000160009054906101000a900460ff1661396b565b6040516020016136bb9190615110565b6040516020818303038152906040529061370b576040517f08c379a000000000000000000000000000000000000000000000000000000000815260040161370291906151f1565b60405180910390fd5b505b60018160010160146101000a81548160ff021916908315150217905550600073ffffffffffffffffffffffffffffffffffffffff168160010160009054906101000a900473ffffffffffffffffffffffffffffffffffffffff1673ffffffffffffffffffffffffffffffffffffffff1614156137c757338160010160006101000a81548173ffffffffffffffffffffffffffffffffffffffff021916908373ffffffffffffffffffffffffffffffffffffffff1602179055505b6000816003015414156137de574281600301819055505b6002600084815260200190815260200160002080549050600183613802919061572e565b101561381f5761381e83600184613819919061572e565b614040565b5b3373ffffffffffffffffffffffffffffffffffffffff167f0a7f9ecb6fddad91ce73f26b944b87a39a119779946172936dedfd40a6766d1f6138718360000160009054906101000a900460ff1661396b565b854260405161388293929190615213565b60405180910390a2505050565b613925816040516024016138a391906151f1565b6040516020818303038152906040527f41304fac000000000000000000000000000000000000000000000000000000007bffffffffffffffffffffffffffffffffffffffffffffffffffffffff19166020820180517bffffffffffffffffffffffffffffffffffffffffffffffffffffffff83818316178352505050506142ae565b50565b60006a636f6e736f6c652e6c6f679050600080835160208501845afa505050565b6000806001600084815260200190815260200160002060020154119050919050565b6060600060028111156139a7577f4e487b7100000000000000000000000000000000000000000000000000000000600052602160045260246000fd5b8260028111156139e0577f4e487b7100000000000000000000000000000000000000000000000000000000600052602160045260246000fd5b1415613a23576040518060400160405280601181526020017f456e676167656d656e74204c65747465720000000000000000000000000000008152509050613bc9565b60016002811115613a5d577f4e487b7100000000000000000000000000000000000000000000000000000000600052602160045260246000fd5b826002811115613a96577f4e487b7100000000000000000000000000000000000000000000000000000000600052602160045260246000fd5b1415613ad9576040518060400160405280600f81526020017f556e6976657273652055706c6f616400000000000000000000000000000000008152509050613bc9565b600280811115613b12577f4e487b7100000000000000000000000000000000000000000000000000000000600052602160045260246000fd5b826002811115613b4b577f4e487b7100000000000000000000000000000000000000000000000000000000600052602160045260246000fd5b1415613b8e576040518060400160405280601381526020017f556e6976657273652056616c69646174696f6e000000000000000000000000008152509050613bc9565b6040517f08c379a0000000000000000000000000000000000000000000000000000000008152600401613bc090615331565b60405180910390fd5b919050565b600080424433600143613be19190615784565b40604051602001613bf5949392919061513d565b6040516020818303038152906040528051906020012060001c9050620186a0620dbba082613c23919061597f565b613c2d919061572e565b90508091505090565b600080600560008473ffffffffffffffffffffffffffffffffffffffff1673ffffffffffffffffffffffffffffffffffffffff16815260200190815260200160002080549050119050919050565b60008060036000848152602001908152602001600020805480602002602001604051908101604052809291908181526020016000905b82821015613dd457838290600052602060002090600202016040518060400160405290816000820160009054906101000a900473ffffffffffffffffffffffffffffffffffffffff1673ffffffffffffffffffffffffffffffffffffffff1673ffffffffffffffffffffffffffffffffffffffff168152602001600182018054613d439061589b565b80601f0160208091040260200160405190810160405280929190818152602001828054613d6f9061589b565b8015613dbc5780601f10613d9157610100808354040283529160200191613dbc565b820191906000526020600020905b815481529060010190602001808311613d9f57829003601f168201915b50505050508152505081526020019060010190613cba565b50505050905060005b8151811015613e7c578473ffffffffffffffffffffffffffffffffffffffff16828281518110613e36577f4e487b7100000000000000000000000000000000000000000000000000000000600052603260045260246000fd5b60200260200101516000015173ffffffffffffffffffffffffffffffffffffffff161415613e6957600192505050613e83565b8080613e74906158fe565b915050613ddd565b5060009150505b92915050565b60005b600260008581526020019081526020016000208054905081101561403a57826002811115613ee3577f4e487b7100000000000000000000000000000000000000000000000000000000600052602160045260246000fd5b600260008681526020019081526020016000208281548110613f2e577f4e487b7100000000000000000000000000000000000000000000000000000000600052603260045260246000fd5b906000526020600020906004020160000160009054906101000a900460ff166002811115613f85577f4e487b7100000000000000000000000000000000000000000000000000000000600052602160045260246000fd5b14156140275781600260008681526020019081526020016000208281548110613fd7577f4e487b7100000000000000000000000000000000000000000000000000000000600052603260045260246000fd5b906000526020600020906004020160000160016101000a81548173ffffffffffffffffffffffffffffffffffffffff021916908373ffffffffffffffffffffffffffffffffffffffff1602179055505b8080614032906158fe565b915050613e8c565b50505050565b600060026000848152602001908152602001600020828154811061408d577f4e487b7100000000000000000000000000000000000000000000000000000000600052603260045260246000fd5b906000526020600020906004020190506000600260008581526020019081526020016000206001846140bf9190615784565b815481106140f6577f4e487b7100000000000000000000000000000000000000000000000000000000600052603260045260246000fd5b90600052602060002090600402019050600115158160010160149054906101000a900460ff1615151461415e576040517f08c379a000000000000000000000000000000000000000000000000000000000815260040161415590615451565b60405180910390fd5b6000816003015490506000600160028111156141a3577f4e487b7100000000000000000000000000000000000000000000000000000000600052602160045260246000fd5b8460000160009054906101000a900460ff1660028111156141ed577f4e487b7100000000000000000000000000000000000000000000000000000000600052602160045260246000fd5b1415614205576141fe82600f6142c8565b905061429d565b60028081111561423e577f4e487b7100000000000000000000000000000000000000000000000000000000600052602160045260246000fd5b8460000160009054906101000a900460ff166002811115614288577f4e487b7100000000000000000000000000000000000000000000000000000000600052602160045260246000fd5b141561429c576142998260056142c8565b90505b5b808460020181905550505050505050565b6142c5816142bd613928614312565b63ffffffff16565b50565b600080839050600083905060006201518090505b60008211156143065780836142f1919061572e565b925081806142fe90615871565b9250506142dc565b82935050505092915050565b61431d819050919050565b7f4e487b7100000000000000000000000000000000000000000000000000000000600052605160045260246000fd5b6040518060600160405280600073ffffffffffffffffffffffffffffffffffffffff16815260200160008152602001600081525090565b6040518060400160405280600073ffffffffffffffffffffffffffffffffffffffff168152602001606081525090565b8280546143bf9061589b565b90600052602060002090601f0160209004810192826143e15760008555614428565b82601f106143fa57805160ff1916838001178555614428565b82800160010185558215614428579182015b8281111561442757825182559160200191906001019061440c565b5b5090506144359190614439565b5090565b5b8082111561445257600081600090555060010161443a565b5090565b600061446961446484615576565b615551565b9050808382526020820190508285602086028201111561448857600080fd5b60005b858110156144b8578161449e88826145f2565b84526020840193506020830192505060018101905061448b565b5050509392505050565b60006144d56144d0846155a2565b615551565b905080838252602082019050828560208602820111156144f457600080fd5b60005b8581101561453e57813567ffffffffffffffff81111561451657600080fd5b808601614523898261469a565b855260208501945060208401935050506001810190506144f7565b5050509392505050565b600061455b614556846155ce565b615551565b9050808382526020820190508285602086028201111561457a57600080fd5b60005b858110156145aa578161459088826146c4565b84526020840193506020830192505060018101905061457d565b5050509392505050565b60006145c76145c2846155fa565b615551565b9050828152602081018484840111156145df57600080fd5b6145ea84828561582f565b509392505050565b60008135905061460181615f7d565b92915050565b600082601f83011261461857600080fd5b8135614628848260208601614456565b91505092915050565b600082601f83011261464257600080fd5b81356146528482602086016144c2565b91505092915050565b600082601f83011261466c57600080fd5b813561467c848260208601614548565b91505092915050565b60008135905061469481615f94565b92915050565b600082601f8301126146ab57600080fd5b81356146bb8482602086016145b4565b91505092915050565b6000813590506146d381615fa4565b92915050565b6000806000606084860312156146ee57600080fd5b60006146fc868287016145f2565b935050602084013567ffffffffffffffff81111561471957600080fd5b6147258682870161469a565b9250506040614736868287016146c4565b9150509250925092565b6000806040838503121561475357600080fd5b6000614761858286016145f2565b9250506020614772858286016146c4565b9150509250929050565b6000806040838503121561478f57600080fd5b600083013567ffffffffffffffff8111156147a957600080fd5b6147b585828601614607565b925050602083013567ffffffffffffffff8111156147d257600080fd5b6147de85828601614631565b9150509250929050565b6000806000606084860312156147fd57600080fd5b600084013567ffffffffffffffff81111561481757600080fd5b61482386828701614607565b935050602084013567ffffffffffffffff81111561484057600080fd5b61484c86828701614631565b925050604061485d868287016146c4565b9150509250925092565b60006020828403121561487957600080fd5b600082013567ffffffffffffffff81111561489357600080fd5b61489f8482850161465b565b91505092915050565b6000602082840312156148ba57600080fd5b60006148c8848285016146c4565b91505092915050565b600080604083850312156148e457600080fd5b60006148f2858286016146c4565b925050602061490385828601614685565b9150509250929050565b6000806040838503121561492057600080fd5b600061492e858286016146c4565b925050602083013567ffffffffffffffff81111561494b57600080fd5b6149578582860161469a565b9150509250929050565b6000806040838503121561497457600080fd5b6000614982858286016146c4565b9250506020614993858286016146c4565b9150509250929050565b60006149a98383614f4b565b60608301905092915050565b60006149c18383614fcf565b60c08301905092915050565b60006149d9838361504a565b905092915050565b6149ea816157b8565b82525050565b614a016149fc826157b8565b615947565b82525050565b6000614a1282615670565b614a1c81856156c3565b9350614a278361562b565b8060005b83811015614a58578151614a3f888261499d565b9750614a4a8361569c565b925050600181019050614a2b565b5085935050505092915050565b6000614a708261567b565b614a7a81856156d4565b9350614a858361563b565b8060005b83811015614ab6578151614a9d88826149b5565b9750614aa8836156a9565b925050600181019050614a89565b5085935050505092915050565b6000614ace82615686565b614ad881856156e5565b935083602082028501614aea8561564b565b8060005b85811015614b265784840389528151614b0785826149cd565b9450614b12836156b6565b925060208a01995050600181019050614aee565b50829750879550505050505092915050565b614b41816157ca565b82525050565b614b58614b53826157d6565b615959565b82525050565b60008154614b6b8161589b565b614b7581866156f6565b94506001821660008114614b905760018114614ba157614bd4565b60ff19831686528186019350614bd4565b614baa8561565b565b60005b83811015614bcc57815481890152600182019150602081019050614bad565b838801955050505b50505092915050565b614be68161581d565b82525050565b6000614bf782615691565b614c018185615701565b9350614c1181856020860161583e565b614c1a81615a9b565b840191505092915050565b6000614c3082615691565b614c3a8185615712565b9350614c4a81856020860161583e565b614c5381615a9b565b840191505092915050565b6000614c6982615691565b614c738185615723565b9350614c8381856020860161583e565b80840191505092915050565b6000614c9c602c83615712565b9150614ca782615ab9565b604082019050919050565b6000614cbf602b83615712565b9150614cca82615b08565b604082019050919050565b6000614ce2601b83615712565b9150614ced82615b57565b602082019050919050565b6000614d05601783615712565b9150614d1082615b80565b602082019050919050565b6000614d28602b83615712565b9150614d3382615ba9565b604082019050919050565b6000614d4b603383615712565b9150614d5682615bf8565b604082019050919050565b6000614d6e600683615723565b9150614d7982615c47565b600682019050919050565b6000614d91602883615712565b9150614d9c82615c70565b604082019050919050565b6000614db4601683615712565b9150614dbf82615cbf565b602082019050919050565b6000614dd7601983615712565b9150614de282615ce8565b602082019050919050565b6000614dfa602183615712565b9150614e0582615d11565b604082019050919050565b6000614e1d600583615712565b9150614e2882615d60565b602082019050919050565b6000614e40601b83615712565b9150614e4b82615d89565b602082019050919050565b6000614e63600e83615723565b9150614e6e82615db2565b600e82019050919050565b6000614e86601d83615712565b9150614e9182615ddb565b602082019050919050565b6000614ea9602383615712565b9150614eb482615e04565b604082019050919050565b6000614ecc603483615712565b9150614ed782615e53565b604082019050919050565b6000614eef602083615712565b9150614efa82615ea2565b602082019050919050565b6000614f12601c83615712565b9150614f1d82615ecb565b602082019050919050565b6000614f35604683615712565b9150614f4082615ef4565b606082019050919050565b606082016000820151614f6160008501826149e1565b506020820151614f7460208501826150c4565b506040820151614f8760408501826150c4565b50505050565b606082016000820151614fa360008501826149e1565b506020820151614fb660208501826150c4565b506040820151614fc960408501826150c4565b50505050565b60c082016000820151614fe56000850182614bdd565b506020820151614ff860208501826149e1565b50604082015161500b60408501826149e1565b50606082015161501e6060850182614b38565b50608082015161503160808501826150c4565b5060a082015161504460a08501826150c4565b50505050565b600060408301600083015161506260008601826149e1565b506020830151848203602086015261507a8282614bec565b9150508091505092915050565b600060408301600083015161509f60008601826149e1565b50602083015184820360208601526150b78282614bec565b9150508091505092915050565b6150cd81615813565b82525050565b6150dc81615813565b82525050565b6150f36150ee82615813565b615975565b82525050565b60006151058284614b5e565b915081905092915050565b600061511b82614e56565b91506151278284614c5e565b915061513282614d61565b915081905092915050565b600061514982876150e2565b60208201915061515982866150e2565b60208201915061516982856149f0565b6014820191506151798284614b47565b60208201915081905095945050505050565b600060208201905081810360008301526151a58184614a07565b905092915050565b600060208201905081810360008301526151c78184614a65565b905092915050565b600060208201905081810360008301526151e98184614ac3565b905092915050565b6000602082019050818103600083015261520b8184614c25565b905092915050565b6000606082019050818103600083015261522d8186614c25565b905061523c60208301856150d3565b61524960408301846150d3565b949350505050565b6000602082019050818103600083015261526a81614c8f565b9050919050565b6000602082019050818103600083015261528a81614cb2565b9050919050565b600060208201905081810360008301526152aa81614cd5565b9050919050565b600060208201905081810360008301526152ca81614cf8565b9050919050565b600060208201905081810360008301526152ea81614d1b565b9050919050565b6000602082019050818103600083015261530a81614d3e565b9050919050565b6000602082019050818103600083015261532a81614d84565b9050919050565b6000602082019050818103600083015261534a81614da7565b9050919050565b6000602082019050818103600083015261536a81614dca565b9050919050565b6000602082019050818103600083015261538a81614ded565b9050919050565b600060208201905081810360008301526153aa81614e33565b9050919050565b600060208201905081810360008301526153ca81614e79565b9050919050565b600060208201905081810360008301526153ea81614e9c565b9050919050565b6000602082019050818103600083015261540a81614ebf565b9050919050565b6000602082019050818103600083015261542a81614ee2565b9050919050565b6000602082019050818103600083015261544a81614f05565b9050919050565b6000602082019050818103600083015261546a81614f28565b9050919050565b60006060820190506154866000830184614f8d565b92915050565b600060208201905081810360008301526154a68184615087565b905092915050565b60006060820190506154c360008301866150d3565b81810360208301526154d58185614c25565b90506154e460408301846150d3565b949350505050565b600060608201905061550160008301856150d3565b818103602083015261551281614e10565b905061552160408301846150d3565b9392505050565b600060408201905061553d60008301856150d3565b61554a60208301846150d3565b9392505050565b600061555b61556c565b905061556782826158cd565b919050565b6000604051905090565b600067ffffffffffffffff82111561559157615590615a6c565b5b602082029050602081019050919050565b600067ffffffffffffffff8211156155bd576155bc615a6c565b5b602082029050602081019050919050565b600067ffffffffffffffff8211156155e9576155e8615a6c565b5b602082029050602081019050919050565b600067ffffffffffffffff82111561561557615614615a6c565b5b61561e82615a9b565b9050602081019050919050565b6000819050602082019050919050565b6000819050602082019050919050565b6000819050602082019050919050565b60008190508160005260206000209050919050565b600081519050919050565b600081519050919050565b600081519050919050565b600081519050919050565b6000602082019050919050565b6000602082019050919050565b6000602082019050919050565b600082825260208201905092915050565b600082825260208201905092915050565b600082825260208201905092915050565b600081905092915050565b600082825260208201905092915050565b600082825260208201905092915050565b600081905092915050565b600061573982615813565b915061574483615813565b9250827fffffffffffffffffffffffffffffffffffffffffffffffffffffffffffffffff03821115615779576157786159b0565b5b828201905092915050565b600061578f82615813565b915061579a83615813565b9250828210156157ad576157ac6159b0565b5b828203905092915050565b60006157c3826157f3565b9050919050565b60008115159050919050565b6000819050919050565b60008190506157ee82615f69565b919050565b600073ffffffffffffffffffffffffffffffffffffffff82169050919050565b6000819050919050565b6000615828826157e0565b9050919050565b82818337600083830152505050565b60005b8381101561585c578082015181840152602081019050615841565b8381111561586b576000848401525b50505050565b600061587c82615813565b915060008214156158905761588f6159b0565b5b600182039050919050565b600060028204905060018216806158b357607f821691505b602082108114156158c7576158c6615a3d565b5b50919050565b6158d682615a9b565b810181811067ffffffffffffffff821117156158f5576158f4615a6c565b5b80604052505050565b600061590982615813565b91507fffffffffffffffffffffffffffffffffffffffffffffffffffffffffffffffff82141561593c5761593b6159b0565b5b600182019050919050565b600061595282615963565b9050919050565b6000819050919050565b600061596e82615aac565b9050919050565b6000819050919050565b600061598a82615813565b915061599583615813565b9250826159a5576159a46159df565b5b828206905092915050565b7f4e487b7100000000000000000000000000000000000000000000000000000000600052601160045260246000fd5b7f4e487b7100000000000000000000000000000000000000000000000000000000600052601260045260246000fd5b7f4e487b7100000000000000000000000000000000000000000000000000000000600052602160045260246000fd5b7f4e487b7100000000000000000000000000000000000000000000000000000000600052602260045260246000fd5b7f4e487b7100000000000000000000000000000000000000000000000000000000600052604160045260246000fd5b6000601f19601f8301169050919050565b60008160601b9050919050565b7f5061727469636970616e74206e6f7420666f756e6420696e207468652073706560008201527f6369666965642061756469740000000000000000000000000000000000000000602082015250565b7f4e756d626572206f66207061727469636970616e747320616e6420726f6c657360008201527f206d757374206d61746368000000000000000000000000000000000000000000602082015250565b7f4175646974206e756d62657220646f6573206e6f742065786973740000000000600082015250565b7f496e76616c6964206d696c6573746f6e6520696e646578000000000000000000600082015250565b7f4f6e6c79207468652061756469742063726561746f722063616e20616464207060008201527f61727469636970616e7473000000000000000000000000000000000000000000602082015250565b7f43616e6e6f7420616464206d696c6573746f6e65206f66207468652073616d6560008201527f207479706520636f6e73656375746976656c7900000000000000000000000000602082015250565b7f2066697273740000000000000000000000000000000000000000000000000000600082015250565b7f4f6e6c792041756469742041646d696e2043616e20536574207468652041756460008201527f6974205374617465000000000000000000000000000000000000000000000000602082015250565b7f496e76616c6964206d696c6573746f6e65207479706500000000000000000000600082015250565b7f417564697420686173206e6f207061727469636970616e747300000000000000600082015250565b7f43616e206f6e6c792068617665206f6e652061646d696e20706572206175646960008201527f7400000000000000000000000000000000000000000000000000000000000000602082015250565b7f41646d696e000000000000000000000000000000000000000000000000000000600082015250565b7f4d696c6573746f6e6520616c726561647920636f6d706c657465640000000000600082015250565b7f4d75737420636f6d706c65746520000000000000000000000000000000000000600082015250565b7f55736572206973206e6f742070617274206f6620616e79206175646974000000600082015250565b7f5061727469636970616e7420616c72656164792065786973747320696e20417560008201527f6469740000000000000000000000000000000000000000000000000000000000602082015250565b7f4f6e6c7920417574686f72697a656420456e7469746965732063616e20436f6d60008201527f706c6574652074686973204d696c6573746f6e65000000000000000000000000602082015250565b7f5573657220646f6573206e6f7420657869737420696e20616e79206175646974600082015250565b7f417564697420537461746520486173204e6f74204265656e2053657400000000600082015250565b7f43616e6e6f7420557064617465204d696c6573746f6e6520447565204461746560008201527f20556e74696c2050726576696f7573204d696c6573746f6e6520697320436f6d60208201527f706c657465640000000000000000000000000000000000000000000000000000604082015250565b60038110615f7a57615f79615a0e565b5b50565b615f86816157b8565b8114615f9157600080fd5b50565b60038110615fa157600080fd5b50565b615fad81615813565b8114615fb857600080fd5b5056fea2646970667358221220af33dcc05adf605b915d7932f174e2f3c4f6621ba48d30c878d3e0e0aee5eac464736f6c63430008040033",
  "linkReferences": {},
  "deployedLinkReferences": {}
}