{
  "_format": "hh-sol-artifact-1",
  "contractName": "Accounts",
  "sourceName": "contracts/Accounts.sol",
  "abi": [
    {
      "inputs": [],
      "stateMutability": "payable",
      "type": "constructor"
    },
    {
      "anonymous": false,
      "inputs": [
        {
          "indexed": true,
          "internalType": "address",
          "name": "from",
          "type": "address"
        },
        {
          "indexed": false,
          "internalType": "string",
          "name": "name",
          "type": "string"
        },
        {
          "indexed": false,
          "internalType": "string",
          "name": "email",
          "type": "string"
        },
        {
          "indexed": false,
          "internalType": "uint256",
          "name": "timestamp",
          "type": "uint256"
        }
      ],
      "name": "newUserCreated",
      "type": "event"
    },
    {
      "inputs": [
        {
          "internalType": "string",
          "name": "_username",
          "type": "string"
        },
        {
          "internalType": "string",
          "name": "_email",
          "type": "string"
        }
      ],
      "name": "addAccount",
      "outputs": [],
      "stateMutability": "nonpayable",
      "type": "function"
    },
    {
      "inputs": [],
      "name": "deleteAccount",
      "outputs": [],
      "stateMutability": "nonpayable",
      "type": "function"
    },
    {
      "inputs": [
        {
          "internalType": "string",
          "name": "_email",
          "type": "string"
        }
      ],
      "name": "deleteAccountAsAdmin",
      "outputs": [],
      "stateMutability": "nonpayable",
      "type": "function"
    },
    {
      "inputs": [
        {
          "internalType": "address",
          "name": "_address",
          "type": "address"
        }
      ],
      "name": "getAccountByAddress",
      "outputs": [
        {
          "components": [
            {
              "internalType": "uint256",
              "name": "ID",
              "type": "uint256"
            },
            {
              "internalType": "string",
              "name": "username",
              "type": "string"
            },
            {
              "internalType": "string",
              "name": "email",
              "type": "string"
            },
            {
              "internalType": "address",
              "name": "addedBy",
              "type": "address"
            },
            {
              "internalType": "uint256",
              "name": "timestamp",
              "type": "uint256"
            }
          ],
          "internalType": "struct Accounts.Account",
          "name": "",
          "type": "tuple"
        }
      ],
      "stateMutability": "view",
      "type": "function"
    },
    {
      "inputs": [
        {
          "internalType": "string",
          "name": "_email",
          "type": "string"
        }
      ],
      "name": "getAccountByEmail",
      "outputs": [
        {
          "components": [
            {
              "internalType": "uint256",
              "name": "ID",
              "type": "uint256"
            },
            {
              "internalType": "string",
              "name": "username",
              "type": "string"
            },
            {
              "internalType": "string",
              "name": "email",
              "type": "string"
            },
            {
              "internalType": "address",
              "name": "addedBy",
              "type": "address"
            },
            {
              "internalType": "uint256",
              "name": "timestamp",
              "type": "uint256"
            }
          ],
          "internalType": "struct Accounts.Account",
          "name": "",
          "type": "tuple"
        }
      ],
      "stateMutability": "view",
      "type": "function"
    },
    {
      "inputs": [
        {
          "internalType": "string",
          "name": "_username",
          "type": "string"
        }
      ],
      "name": "getAccountByUsername",
      "outputs": [
        {
          "components": [
            {
              "internalType": "uint256",
              "name": "ID",
              "type": "uint256"
            },
            {
              "internalType": "string",
              "name": "username",
              "type": "string"
            },
            {
              "internalType": "string",
              "name": "email",
              "type": "string"
            },
            {
              "internalType": "address",
              "name": "addedBy",
              "type": "address"
            },
            {
              "internalType": "uint256",
              "name": "timestamp",
              "type": "uint256"
            }
          ],
          "internalType": "struct Accounts.Account",
          "name": "",
          "type": "tuple"
        }
      ],
      "stateMutability": "view",
      "type": "function"
    },
    {
      "inputs": [
        {
          "internalType": "address[]",
          "name": "addresses",
          "type": "address[]"
        }
      ],
      "name": "getAccountsByAddress",
      "outputs": [
        {
          "components": [
            {
              "internalType": "uint256",
              "name": "ID",
              "type": "uint256"
            },
            {
              "internalType": "string",
              "name": "username",
              "type": "string"
            },
            {
              "internalType": "string",
              "name": "email",
              "type": "string"
            },
            {
              "internalType": "address",
              "name": "addedBy",
              "type": "address"
            },
            {
              "internalType": "uint256",
              "name": "timestamp",
              "type": "uint256"
            }
          ],
          "internalType": "struct Accounts.Account[]",
          "name": "",
          "type": "tuple[]"
        }
      ],
      "stateMutability": "view",
      "type": "function"
    },
    {
      "inputs": [
        {
          "internalType": "string[]",
          "name": "_emails",
          "type": "string[]"
        }
      ],
      "name": "getAccountsByEmail",
      "outputs": [
        {
          "components": [
            {
              "internalType": "uint256",
              "name": "ID",
              "type": "uint256"
            },
            {
              "internalType": "string",
              "name": "username",
              "type": "string"
            },
            {
              "internalType": "string",
              "name": "email",
              "type": "string"
            },
            {
              "internalType": "address",
              "name": "addedBy",
              "type": "address"
            },
            {
              "internalType": "uint256",
              "name": "timestamp",
              "type": "uint256"
            }
          ],
          "internalType": "struct Accounts.Account[]",
          "name": "",
          "type": "tuple[]"
        }
      ],
      "stateMutability": "view",
      "type": "function"
    },
    {
      "inputs": [],
      "name": "getAllAccounts",
      "outputs": [
        {
          "components": [
            {
              "internalType": "uint256",
              "name": "ID",
              "type": "uint256"
            },
            {
              "internalType": "string",
              "name": "username",
              "type": "string"
            },
            {
              "internalType": "string",
              "name": "email",
              "type": "string"
            },
            {
              "internalType": "address",
              "name": "addedBy",
              "type": "address"
            },
            {
              "internalType": "uint256",
              "name": "timestamp",
              "type": "uint256"
            }
          ],
          "internalType": "struct Accounts.Account[]",
          "name": "",
          "type": "tuple[]"
        }
      ],
      "stateMutability": "view",
      "type": "function"
    },
    {
      "inputs": [],
      "name": "getUserAccount",
      "outputs": [
        {
          "components": [
            {
              "internalType": "uint256",
              "name": "ID",
              "type": "uint256"
            },
            {
              "internalType": "string",
              "name": "username",
              "type": "string"
            },
            {
              "internalType": "string",
              "name": "email",
              "type": "string"
            },
            {
              "internalType": "address",
              "name": "addedBy",
              "type": "address"
            },
            {
              "internalType": "uint256",
              "name": "timestamp",
              "type": "uint256"
            }
          ],
          "internalType": "struct Accounts.Account",
          "name": "",
          "type": "tuple"
        }
      ],
      "stateMutability": "view",
      "type": "function"
    }
  ],
  "bytecode": "0x608060405260006005556000600655620000596040518060400160405280601e81526020017f436f6e747261637420686173206265656e20636f6e7374727563746564210000815250620000a060201b620029cf1760201c565b33600760006101000a81548173ffffffffffffffffffffffffffffffffffffffff021916908373ffffffffffffffffffffffffffffffffffffffff16021790555062000298565b6200014081604051602401620000b7919062000211565b6040516020818303038152906040527f41304fac000000000000000000000000000000000000000000000000000000007bffffffffffffffffffffffffffffffffffffffffffffffffffffffff19166020820180517bffffffffffffffffffffffffffffffffffffffffffffffffffffffff83818316178352505050506200014360201b60201c565b50565b6200016981620001646200016c60201b62002a68176200018d60201b60201c565b60201c565b50565b60006a636f6e736f6c652e6c6f679050600080835160208501845afa505050565b620001a160201b62002b0817819050919050565b7f4e487b7100000000000000000000000000000000000000000000000000000000600052605160045260246000fd5b6000620001dd8262000235565b620001e9818562000240565b9350620001fb81856020860162000251565b620002068162000287565b840191505092915050565b600060208201905081810360008301526200022d8184620001d0565b905092915050565b600081519050919050565b600082825260208201905092915050565b60005b838110156200027157808201518184015260208101905062000254565b8381111562000281576000848401525b50505050565b6000601f19601f8301169050919050565b613b1d80620002a86000396000f3fe608060405234801561001057600080fd5b506004361061009e5760003560e01c80636115ca0c116100665780636115ca0c146101475780638858e0e714610165578063b8e85fec14610195578063c1c0f4a7146101c5578063e51f0a27146101f55761009e565b806308e93d0a146100a35780631c58d53a146100c15780633be32f7d146100f15780634479a70f146100fb5780635f8a9b9114610117575b600080fd5b6100ab610211565b6040516100b89190613342565b60405180910390f35b6100db60048036038101906100d69190612ecd565b6105c7565b6040516100e8919061350b565b60405180910390f35b6100f96108e1565b005b61011560048036038101906101109190612f0e565b611027565b005b610131600480360381019061012c9190612ecd565b6115ba565b60405161013e919061350b565b60405180910390f35b61014f6118d4565b60405161015c919061350b565b60405180910390f35b61017f600480360381019061017a9190612e4b565b611bbc565b60405161018c9190613342565b60405180910390f35b6101af60048036038101906101aa9190612e22565b611d73565b6040516101bc919061350b565b60405180910390f35b6101df60048036038101906101da9190612e8c565b61205d565b6040516101ec9190613342565b60405180910390f35b61020f600480360381019061020a9190612ecd565b612214565b005b6060333373ffffffffffffffffffffffffffffffffffffffff168173ffffffffffffffffffffffffffffffffffffffff161480610253575061025233612a89565b5b610292576040517f08c379a00000000000000000000000000000000000000000000000000000000081526004016102899061348b565b60405180910390fd5b6000600180549050905060008167ffffffffffffffff8111156102de577f4e487b7100000000000000000000000000000000000000000000000000000000600052604160045260246000fd5b60405190808252806020026020018201604052801561031757816020015b610304612b37565b8152602001906001900390816102fc5790505b50905060005b828110156105bd57600060018281548110610361577f4e487b7100000000000000000000000000000000000000000000000000000000600052603260045260246000fd5b9060005260206000200160009054906101000a900473ffffffffffffffffffffffffffffffffffffffff1690506000808273ffffffffffffffffffffffffffffffffffffffff1673ffffffffffffffffffffffffffffffffffffffff1681526020019081526020016000206040518060a0016040529081600082015481526020016001820180546103f190613754565b80601f016020809104026020016040519081016040528092919081815260200182805461041d90613754565b801561046a5780601f1061043f5761010080835404028352916020019161046a565b820191906000526020600020905b81548152906001019060200180831161044d57829003601f168201915b5050505050815260200160028201805461048390613754565b80601f01602080910402602001604051908101604052809291908181526020018280546104af90613754565b80156104fc5780601f106104d1576101008083540402835291602001916104fc565b820191906000526020600020905b8154815290600101906020018083116104df57829003601f168201915b505050505081526020016003820160009054906101000a900473ffffffffffffffffffffffffffffffffffffffff1673ffffffffffffffffffffffffffffffffffffffff1673ffffffffffffffffffffffffffffffffffffffff16815260200160048201548152505083838151811061059e577f4e487b7100000000000000000000000000000000000000000000000000000000600052603260045260246000fd5b60200260200101819052505080806105b5906137b7565b91505061031d565b5080935050505090565b6105cf612b37565b333373ffffffffffffffffffffffffffffffffffffffff168173ffffffffffffffffffffffffffffffffffffffff16148061060f575061060e33612a89565b5b61064e576040517f08c379a00000000000000000000000000000000000000000000000000000000081526004016106459061348b565b60405180910390fd5b6000600384604051610660919061332b565b908152602001604051809103902060009054906101000a900473ffffffffffffffffffffffffffffffffffffffff169050600073ffffffffffffffffffffffffffffffffffffffff168173ffffffffffffffffffffffffffffffffffffffff161415610701576040517f08c379a00000000000000000000000000000000000000000000000000000000081526004016106f8906134ab565b60405180910390fd5b6000808273ffffffffffffffffffffffffffffffffffffffff1673ffffffffffffffffffffffffffffffffffffffff1681526020019081526020016000206040518060a00160405290816000820154815260200160018201805461076490613754565b80601f016020809104026020016040519081016040528092919081815260200182805461079090613754565b80156107dd5780601f106107b2576101008083540402835291602001916107dd565b820191906000526020600020905b8154815290600101906020018083116107c057829003601f168201915b505050505081526020016002820180546107f690613754565b80601f016020809104026020016040519081016040528092919081815260200182805461082290613754565b801561086f5780601f106108445761010080835404028352916020019161086f565b820191906000526020600020905b81548152906001019060200180831161085257829003601f168201915b505050505081526020016003820160009054906101000a900473ffffffffffffffffffffffffffffffffffffffff1673ffffffffffffffffffffffffffffffffffffffff1673ffffffffffffffffffffffffffffffffffffffff16815260200160048201548152505092505050919050565b333373ffffffffffffffffffffffffffffffffffffffff168173ffffffffffffffffffffffffffffffffffffffff161480610921575061092033612a89565b5b610960576040517f08c379a00000000000000000000000000000000000000000000000000000000081526004016109579061348b565b60405180910390fd5b60008060003373ffffffffffffffffffffffffffffffffffffffff1673ffffffffffffffffffffffffffffffffffffffff1681526020019081526020016000206040518060a0016040529081600082015481526020016001820180546109c590613754565b80601f01602080910402602001604051908101604052809291908181526020018280546109f190613754565b8015610a3e5780601f10610a1357610100808354040283529160200191610a3e565b820191906000526020600020905b815481529060010190602001808311610a2157829003601f168201915b50505050508152602001600282018054610a5790613754565b80601f0160208091040260200160405190810160405280929190818152602001828054610a8390613754565b8015610ad05780601f10610aa557610100808354040283529160200191610ad0565b820191906000526020600020905b815481529060010190602001808311610ab357829003601f168201915b505050505081526020016003820160009054906101000a900473ffffffffffffffffffffffffffffffffffffffff1673ffffffffffffffffffffffffffffffffffffffff1673ffffffffffffffffffffffffffffffffffffffff1681526020016004820154815250509050600081606001519050600082602001519050600083604001519050600073ffffffffffffffffffffffffffffffffffffffff168373ffffffffffffffffffffffffffffffffffffffff161415610bc6576040517f08c379a0000000000000000000000000000000000000000000000000000000008152600401610bbd906134cb565b60405180910390fd5b600073ffffffffffffffffffffffffffffffffffffffff16600383604051610bee919061332b565b908152602001604051809103902060009054906101000a900473ffffffffffffffffffffffffffffffffffffffff1673ffffffffffffffffffffffffffffffffffffffff161415610c74576040517f08c379a0000000000000000000000000000000000000000000000000000000008152600401610c6b906133cb565b60405180910390fd5b3373ffffffffffffffffffffffffffffffffffffffff168373ffffffffffffffffffffffffffffffffffffffff1614610ce2576040517f08c379a0000000000000000000000000000000000000000000000000000000008152600401610cd99061346b565b60405180910390fd5b6000808473ffffffffffffffffffffffffffffffffffffffff1673ffffffffffffffffffffffffffffffffffffffff168152602001908152602001600020600080820160009055600182016000610d399190612b7c565b600282016000610d499190612b7c565b6003820160006101000a81549073ffffffffffffffffffffffffffffffffffffffff021916905560048201600090555050600281604051610d8a919061332b565b908152602001604051809103902060006101000a81549073ffffffffffffffffffffffffffffffffffffffff0219169055600382604051610dcb919061332b565b908152602001604051809103902060006101000a81549073ffffffffffffffffffffffffffffffffffffffff021916905560005b60018054905081101561101f578373ffffffffffffffffffffffffffffffffffffffff1660018281548110610e5d577f4e487b7100000000000000000000000000000000000000000000000000000000600052603260045260246000fd5b9060005260206000200160009054906101000a900473ffffffffffffffffffffffffffffffffffffffff1673ffffffffffffffffffffffffffffffffffffffff16141561100c576001808080549050610eb691906136a2565b81548110610eed577f4e487b7100000000000000000000000000000000000000000000000000000000600052603260045260246000fd5b9060005260206000200160009054906101000a900473ffffffffffffffffffffffffffffffffffffffff1660018281548110610f52577f4e487b7100000000000000000000000000000000000000000000000000000000600052603260045260246000fd5b9060005260206000200160006101000a81548173ffffffffffffffffffffffffffffffffffffffff021916908373ffffffffffffffffffffffffffffffffffffffff1602179055506001805480610fd2577f4e487b7100000000000000000000000000000000000000000000000000000000600052603160045260246000fd5b6001900381819060005260206000200160006101000a81549073ffffffffffffffffffffffffffffffffffffffff0219169055905561101f565b8080611017906137b7565b915050610dff565b505050505050565b60006040518060a0016040528060055481526020018481526020018381526020013373ffffffffffffffffffffffffffffffffffffffff168152602001428152509050600083805190602001201415801561108a57506000828051906020012014155b6110c9576040517f08c379a00000000000000000000000000000000000000000000000000000000081526004016110c0906133eb565b60405180910390fd5b60008060003373ffffffffffffffffffffffffffffffffffffffff1673ffffffffffffffffffffffffffffffffffffffff168152602001908152602001600020600401541461114d576040517f08c379a0000000000000000000000000000000000000000000000000000000008152600401611144906134eb565b60405180910390fd5b600073ffffffffffffffffffffffffffffffffffffffff16600283604051611175919061332b565b908152602001604051809103902060009054906101000a900473ffffffffffffffffffffffffffffffffffffffff1673ffffffffffffffffffffffffffffffffffffffff16146111fa576040517f08c379a00000000000000000000000000000000000000000000000000000000081526004016111f19061340b565b60405180910390fd5b600073ffffffffffffffffffffffffffffffffffffffff16600384604051611222919061332b565b908152602001604051809103902060009054906101000a900473ffffffffffffffffffffffffffffffffffffffff1673ffffffffffffffffffffffffffffffffffffffff16146112a7576040517f08c379a000000000000000000000000000000000000000000000000000000000815260040161129e9061342b565b60405180910390fd5b806000803373ffffffffffffffffffffffffffffffffffffffff1673ffffffffffffffffffffffffffffffffffffffff16815260200190815260200160002060008201518160000155602082015181600101908051906020019061130c929190612bbc565b506040820151816002019080519060200190611329929190612bbc565b5060608201518160030160006101000a81548173ffffffffffffffffffffffffffffffffffffffff021916908373ffffffffffffffffffffffffffffffffffffffff160217905550608082015181600401559050506001339080600181540180825580915050600190039060005260206000200160009091909190916101000a81548173ffffffffffffffffffffffffffffffffffffffff021916908373ffffffffffffffffffffffffffffffffffffffff160217905550336002836040516113f2919061332b565b908152602001604051809103902060006101000a81548173ffffffffffffffffffffffffffffffffffffffff021916908373ffffffffffffffffffffffffffffffffffffffff1602179055503360038460405161144f919061332b565b908152602001604051809103902060006101000a81548173ffffffffffffffffffffffffffffffffffffffff021916908373ffffffffffffffffffffffffffffffffffffffff160217905550806004600060055481526020019081526020016000206000820151816000015560208201518160010190805190602001906114d7929190612bbc565b5060408201518160020190805190602001906114f4929190612bbc565b5060608201518160030160006101000a81548173ffffffffffffffffffffffffffffffffffffffff021916908373ffffffffffffffffffffffffffffffffffffffff1602179055506080820151816004015590505060016005600082825461155c919061364c565b925050819055503373ffffffffffffffffffffffffffffffffffffffff167f0c42461b83370ca52e2b4318bece4c73fe34e85c783456640410d80a43ffae718484426040516115ad93929190613386565b60405180910390a2505050565b6115c2612b37565b333373ffffffffffffffffffffffffffffffffffffffff168173ffffffffffffffffffffffffffffffffffffffff161480611602575061160133612a89565b5b611641576040517f08c379a00000000000000000000000000000000000000000000000000000000081526004016116389061348b565b60405180910390fd5b6000600284604051611653919061332b565b908152602001604051809103902060009054906101000a900473ffffffffffffffffffffffffffffffffffffffff169050600073ffffffffffffffffffffffffffffffffffffffff168173ffffffffffffffffffffffffffffffffffffffff1614156116f4576040517f08c379a00000000000000000000000000000000000000000000000000000000081526004016116eb906134ab565b60405180910390fd5b6000808273ffffffffffffffffffffffffffffffffffffffff1673ffffffffffffffffffffffffffffffffffffffff1681526020019081526020016000206040518060a00160405290816000820154815260200160018201805461175790613754565b80601f016020809104026020016040519081016040528092919081815260200182805461178390613754565b80156117d05780601f106117a5576101008083540402835291602001916117d0565b820191906000526020600020905b8154815290600101906020018083116117b357829003601f168201915b505050505081526020016002820180546117e990613754565b80601f016020809104026020016040519081016040528092919081815260200182805461181590613754565b80156118625780601f1061183757610100808354040283529160200191611862565b820191906000526020600020905b81548152906001019060200180831161184557829003601f168201915b505050505081526020016003820160009054906101000a900473ffffffffffffffffffffffffffffffffffffffff1673ffffffffffffffffffffffffffffffffffffffff1673ffffffffffffffffffffffffffffffffffffffff16815260200160048201548152505092505050919050565b6118dc612b37565b333373ffffffffffffffffffffffffffffffffffffffff168173ffffffffffffffffffffffffffffffffffffffff16148061191c575061191b33612a89565b5b61195b576040517f08c379a00000000000000000000000000000000000000000000000000000000081526004016119529061348b565b60405180910390fd5b60008060003373ffffffffffffffffffffffffffffffffffffffff1673ffffffffffffffffffffffffffffffffffffffff16815260200190815260200160002060040154116119df576040517f08c379a00000000000000000000000000000000000000000000000000000000081526004016119d6906134ab565b60405180910390fd5b6000803373ffffffffffffffffffffffffffffffffffffffff1673ffffffffffffffffffffffffffffffffffffffff1681526020019081526020016000206040518060a001604052908160008201548152602001600182018054611a4290613754565b80601f0160208091040260200160405190810160405280929190818152602001828054611a6e90613754565b8015611abb5780601f10611a9057610100808354040283529160200191611abb565b820191906000526020600020905b815481529060010190602001808311611a9e57829003601f168201915b50505050508152602001600282018054611ad490613754565b80601f0160208091040260200160405190810160405280929190818152602001828054611b0090613754565b8015611b4d5780601f10611b2257610100808354040283529160200191611b4d565b820191906000526020600020905b815481529060010190602001808311611b3057829003601f168201915b505050505081526020016003820160009054906101000a900473ffffffffffffffffffffffffffffffffffffffff1673ffffffffffffffffffffffffffffffffffffffff1673ffffffffffffffffffffffffffffffffffffffff16815260200160048201548152505091505090565b6060333373ffffffffffffffffffffffffffffffffffffffff168173ffffffffffffffffffffffffffffffffffffffff161480611bfe5750611bfd33612a89565b5b611c3d576040517f08c379a0000000000000000000000000000000000000000000000000000000008152600401611c349061348b565b60405180910390fd5b6000835167ffffffffffffffff811115611c80577f4e487b7100000000000000000000000000000000000000000000000000000000600052604160045260246000fd5b604051908082528060200260200182016040528015611cb957816020015b611ca6612b37565b815260200190600190039081611c9e5790505b50905060005b8451811015611d6857611d11858281518110611d04577f4e487b7100000000000000000000000000000000000000000000000000000000600052603260045260246000fd5b6020026020010151611d73565b828281518110611d4a577f4e487b7100000000000000000000000000000000000000000000000000000000600052603260045260246000fd5b60200260200101819052508080611d60906137b7565b915050611cbf565b508092505050919050565b611d7b612b37565b333373ffffffffffffffffffffffffffffffffffffffff168173ffffffffffffffffffffffffffffffffffffffff161480611dbb5750611dba33612a89565b5b611dfa576040517f08c379a0000000000000000000000000000000000000000000000000000000008152600401611df19061348b565b60405180910390fd5b60008060008573ffffffffffffffffffffffffffffffffffffffff1673ffffffffffffffffffffffffffffffffffffffff1681526020019081526020016000206004015411611e7e576040517f08c379a0000000000000000000000000000000000000000000000000000000008152600401611e75906134ab565b60405180910390fd5b6000808473ffffffffffffffffffffffffffffffffffffffff1673ffffffffffffffffffffffffffffffffffffffff1681526020019081526020016000206040518060a001604052908160008201548152602001600182018054611ee190613754565b80601f0160208091040260200160405190810160405280929190818152602001828054611f0d90613754565b8015611f5a5780601f10611f2f57610100808354040283529160200191611f5a565b820191906000526020600020905b815481529060010190602001808311611f3d57829003601f168201915b50505050508152602001600282018054611f7390613754565b80601f0160208091040260200160405190810160405280929190818152602001828054611f9f90613754565b8015611fec5780601f10611fc157610100808354040283529160200191611fec565b820191906000526020600020905b815481529060010190602001808311611fcf57829003601f168201915b505050505081526020016003820160009054906101000a900473ffffffffffffffffffffffffffffffffffffffff1673ffffffffffffffffffffffffffffffffffffffff1673ffffffffffffffffffffffffffffffffffffffff168152602001600482015481525050915050919050565b6060333373ffffffffffffffffffffffffffffffffffffffff168173ffffffffffffffffffffffffffffffffffffffff16148061209f575061209e33612a89565b5b6120de576040517f08c379a00000000000000000000000000000000000000000000000000000000081526004016120d59061348b565b60405180910390fd5b6000835167ffffffffffffffff811115612121577f4e487b7100000000000000000000000000000000000000000000000000000000600052604160045260246000fd5b60405190808252806020026020018201604052801561215a57816020015b612147612b37565b81526020019060019003908161213f5790505b50905060005b8451811015612209576121b28582815181106121a5577f4e487b7100000000000000000000000000000000000000000000000000000000600052603260045260246000fd5b60200260200101516115ba565b8282815181106121eb577f4e487b7100000000000000000000000000000000000000000000000000000000600052603260045260246000fd5b60200260200101819052508080612201906137b7565b915050612160565b508092505050919050565b600760009054906101000a900473ffffffffffffffffffffffffffffffffffffffff163373ffffffffffffffffffffffffffffffffffffffff168173ffffffffffffffffffffffffffffffffffffffff161480612276575061227533612a89565b5b6122b5576040517f08c379a00000000000000000000000000000000000000000000000000000000081526004016122ac9061348b565b60405180910390fd5b600760009054906101000a900473ffffffffffffffffffffffffffffffffffffffff1673ffffffffffffffffffffffffffffffffffffffff163373ffffffffffffffffffffffffffffffffffffffff1614612345576040517f08c379a000000000000000000000000000000000000000000000000000000000815260040161233c9061344b565b60405180910390fd5b6000600283604051612357919061332b565b908152602001604051809103902060009054906101000a900473ffffffffffffffffffffffffffffffffffffffff16905060008060008373ffffffffffffffffffffffffffffffffffffffff1673ffffffffffffffffffffffffffffffffffffffff1681526020019081526020016000206040518060a0016040529081600082015481526020016001820180546123ed90613754565b80601f016020809104026020016040519081016040528092919081815260200182805461241990613754565b80156124665780601f1061243b57610100808354040283529160200191612466565b820191906000526020600020905b81548152906001019060200180831161244957829003601f168201915b5050505050815260200160028201805461247f90613754565b80601f01602080910402602001604051908101604052809291908181526020018280546124ab90613754565b80156124f85780601f106124cd576101008083540402835291602001916124f8565b820191906000526020600020905b8154815290600101906020018083116124db57829003601f168201915b505050505081526020016003820160009054906101000a900473ffffffffffffffffffffffffffffffffffffffff1673ffffffffffffffffffffffffffffffffffffffff1673ffffffffffffffffffffffffffffffffffffffff1681526020016004820154815250509050600081602001519050600073ffffffffffffffffffffffffffffffffffffffff168373ffffffffffffffffffffffffffffffffffffffff1614156125dc576040517f08c379a00000000000000000000000000000000000000000000000000000000081526004016125d3906134cb565b60405180910390fd5b600073ffffffffffffffffffffffffffffffffffffffff16600382604051612604919061332b565b908152602001604051809103902060009054906101000a900473ffffffffffffffffffffffffffffffffffffffff1673ffffffffffffffffffffffffffffffffffffffff16141561268a576040517f08c379a0000000000000000000000000000000000000000000000000000000008152600401612681906133cb565b60405180910390fd5b6000808473ffffffffffffffffffffffffffffffffffffffff1673ffffffffffffffffffffffffffffffffffffffff1681526020019081526020016000206000808201600090556001820160006126e19190612b7c565b6002820160006126f19190612b7c565b6003820160006101000a81549073ffffffffffffffffffffffffffffffffffffffff021916905560048201600090555050600285604051612732919061332b565b908152602001604051809103902060006101000a81549073ffffffffffffffffffffffffffffffffffffffff0219169055600381604051612773919061332b565b908152602001604051809103902060006101000a81549073ffffffffffffffffffffffffffffffffffffffff021916905560005b6001805490508110156129c7578373ffffffffffffffffffffffffffffffffffffffff1660018281548110612805577f4e487b7100000000000000000000000000000000000000000000000000000000600052603260045260246000fd5b9060005260206000200160009054906101000a900473ffffffffffffffffffffffffffffffffffffffff1673ffffffffffffffffffffffffffffffffffffffff1614156129b457600180808054905061285e91906136a2565b81548110612895577f4e487b7100000000000000000000000000000000000000000000000000000000600052603260045260246000fd5b9060005260206000200160009054906101000a900473ffffffffffffffffffffffffffffffffffffffff16600182815481106128fa577f4e487b7100000000000000000000000000000000000000000000000000000000600052603260045260246000fd5b9060005260206000200160006101000a81548173ffffffffffffffffffffffffffffffffffffffff021916908373ffffffffffffffffffffffffffffffffffffffff160217905550600180548061297a577f4e487b7100000000000000000000000000000000000000000000000000000000600052603160045260246000fd5b6001900381819060005260206000200160006101000a81549073ffffffffffffffffffffffffffffffffffffffff021916905590556129c7565b80806129bf906137b7565b9150506127a7565b505050505050565b612a65816040516024016129e39190613364565b6040516020818303038152906040527f41304fac000000000000000000000000000000000000000000000000000000007bffffffffffffffffffffffffffffffffffffffffffffffffffffffff19166020820180517bffffffffffffffffffffffffffffffffffffffffffffffffffffffff8381831617835250505050612ae3565b50565b60006a636f6e736f6c652e6c6f679050600080835160208501845afa505050565b6000600760009054906101000a900473ffffffffffffffffffffffffffffffffffffffff1673ffffffffffffffffffffffffffffffffffffffff168273ffffffffffffffffffffffffffffffffffffffff16149050919050565b612afa81612af2612a68612afd565b63ffffffff16565b50565b612b08819050919050565b7f4e487b7100000000000000000000000000000000000000000000000000000000600052605160045260246000fd5b6040518060a00160405280600081526020016060815260200160608152602001600073ffffffffffffffffffffffffffffffffffffffff168152602001600081525090565b508054612b8890613754565b6000825580601f10612b9a5750612bb9565b601f016020900490600052602060002090810190612bb89190612c42565b5b50565b828054612bc890613754565b90600052602060002090601f016020900481019282612bea5760008555612c31565b82601f10612c0357805160ff1916838001178555612c31565b82800160010185558215612c31579182015b82811115612c30578251825591602001919060010190612c15565b5b509050612c3e9190612c42565b5090565b5b80821115612c5b576000816000905550600101612c43565b5090565b6000612c72612c6d84613552565b61352d565b90508083825260208201905082856020860282011115612c9157600080fd5b60005b85811015612cc15781612ca78882612d8f565b845260208401935060208301925050600181019050612c94565b5050509392505050565b6000612cde612cd98461357e565b61352d565b90508083825260208201905082856020860282011115612cfd57600080fd5b60005b85811015612d4757813567ffffffffffffffff811115612d1f57600080fd5b808601612d2c8982612df8565b85526020850194506020840193505050600181019050612d00565b5050509392505050565b6000612d64612d5f846135aa565b61352d565b905082815260208101848484011115612d7c57600080fd5b612d87848285613712565b509392505050565b600081359050612d9e81613ad0565b92915050565b600082601f830112612db557600080fd5b8135612dc5848260208601612c5f565b91505092915050565b600082601f830112612ddf57600080fd5b8135612def848260208601612ccb565b91505092915050565b600082601f830112612e0957600080fd5b8135612e19848260208601612d51565b91505092915050565b600060208284031215612e3457600080fd5b6000612e4284828501612d8f565b91505092915050565b600060208284031215612e5d57600080fd5b600082013567ffffffffffffffff811115612e7757600080fd5b612e8384828501612da4565b91505092915050565b600060208284031215612e9e57600080fd5b600082013567ffffffffffffffff811115612eb857600080fd5b612ec484828501612dce565b91505092915050565b600060208284031215612edf57600080fd5b600082013567ffffffffffffffff811115612ef957600080fd5b612f0584828501612df8565b91505092915050565b60008060408385031215612f2157600080fd5b600083013567ffffffffffffffff811115612f3b57600080fd5b612f4785828601612df8565b925050602083013567ffffffffffffffff811115612f6457600080fd5b612f7085828601612df8565b9150509250929050565b6000612f868383613213565b905092915050565b612f97816136d6565b82525050565b6000612fa8826135eb565b612fb2818561360e565b935083602082028501612fc4856135db565b8060005b858110156130005784840389528151612fe18582612f7a565b9450612fec83613601565b925060208a01995050600181019050612fc8565b50829750879550505050505092915050565b600061301d826135f6565b613027818561361f565b9350613037818560208601613721565b6130408161388d565b840191505092915050565b6000613056826135f6565b6130608185613630565b9350613070818560208601613721565b6130798161388d565b840191505092915050565b600061308f826135f6565b6130998185613641565b93506130a9818560208601613721565b80840191505092915050565b60006130c2601783613630565b91506130cd8261389e565b602082019050919050565b60006130e5602383613630565b91506130f0826138c7565b604082019050919050565b6000613108602083613630565b915061311382613916565b602082019050919050565b600061312b602383613630565b91506131368261393f565b604082019050919050565b600061314e602a83613630565b91506131598261398e565b604082019050919050565b6000613171602483613630565b915061317c826139dd565b604082019050919050565b6000613194601383613630565b915061319f82613a2c565b602082019050919050565b60006131b7601683613630565b91506131c282613a55565b602082019050919050565b60006131da601483613630565b91506131e582613a7e565b602082019050919050565b60006131fd601683613630565b915061320882613aa7565b602082019050919050565b600060a08301600083015161322b600086018261330d565b50602083015184820360208601526132438282613012565b9150506040830151848203604086015261325d8282613012565b91505060608301516132726060860182612f8e565b506080830151613285608086018261330d565b508091505092915050565b600060a0830160008301516132a8600086018261330d565b50602083015184820360208601526132c08282613012565b915050604083015184820360408601526132da8282613012565b91505060608301516132ef6060860182612f8e565b506080830151613302608086018261330d565b508091505092915050565b61331681613708565b82525050565b61332581613708565b82525050565b60006133378284613084565b915081905092915050565b6000602082019050818103600083015261335c8184612f9d565b905092915050565b6000602082019050818103600083015261337e818461304b565b905092915050565b600060608201905081810360008301526133a0818661304b565b905081810360208301526133b4818561304b565b90506133c3604083018461331c565b949350505050565b600060208201905081810360008301526133e4816130b5565b9050919050565b60006020820190508181036000830152613404816130d8565b9050919050565b60006020820190508181036000830152613424816130fb565b9050919050565b600060208201905081810360008301526134448161311e565b9050919050565b6000602082019050818103600083015261346481613141565b9050919050565b6000602082019050818103600083015261348481613164565b9050919050565b600060208201905081810360008301526134a481613187565b9050919050565b600060208201905081810360008301526134c4816131aa565b9050919050565b600060208201905081810360008301526134e4816131cd565b9050919050565b60006020820190508181036000830152613504816131f0565b9050919050565b600060208201905081810360008301526135258184613290565b905092915050565b6000613537613548565b90506135438282613786565b919050565b6000604051905090565b600067ffffffffffffffff82111561356d5761356c61385e565b5b602082029050602081019050919050565b600067ffffffffffffffff8211156135995761359861385e565b5b602082029050602081019050919050565b600067ffffffffffffffff8211156135c5576135c461385e565b5b6135ce8261388d565b9050602081019050919050565b6000819050602082019050919050565b600081519050919050565b600081519050919050565b6000602082019050919050565b600082825260208201905092915050565b600082825260208201905092915050565b600082825260208201905092915050565b600081905092915050565b600061365782613708565b915061366283613708565b9250827fffffffffffffffffffffffffffffffffffffffffffffffffffffffffffffffff0382111561369757613696613800565b5b828201905092915050565b60006136ad82613708565b91506136b883613708565b9250828210156136cb576136ca613800565b5b828203905092915050565b60006136e1826136e8565b9050919050565b600073ffffffffffffffffffffffffffffffffffffffff82169050919050565b6000819050919050565b82818337600083830152505050565b60005b8381101561373f578082015181840152602081019050613724565b8381111561374e576000848401525b50505050565b6000600282049050600182168061376c57607f821691505b602082108114156137805761377f61382f565b5b50919050565b61378f8261388d565b810181811067ffffffffffffffff821117156137ae576137ad61385e565b5b80604052505050565b60006137c282613708565b91507fffffffffffffffffffffffffffffffffffffffffffffffffffffffffffffffff8214156137f5576137f4613800565b5b600182019050919050565b7f4e487b7100000000000000000000000000000000000000000000000000000000600052601160045260246000fd5b7f4e487b7100000000000000000000000000000000000000000000000000000000600052602260045260246000fd5b7f4e487b7100000000000000000000000000000000000000000000000000000000600052604160045260246000fd5b6000601f19601f8301169050919050565b7f557365726e616d6520646f6573206e6f74206578697374000000000000000000600082015250565b7f557365726e616d6520616e6420456d61696c2063616e6e6f7420626520626c6160008201527f6e6b210000000000000000000000000000000000000000000000000000000000602082015250565b7f456d61696c20616c72656164792065786973747320696e206461746162617365600082015250565b7f557365726e616d6520616c72656164792065786973747320696e20646174616260008201527f6173650000000000000000000000000000000000000000000000000000000000602082015250565b7f4f6e6c7920436f6e74726163742041646d696e2043616e2043616c6c2054686960008201527f732046756e6374696f6e00000000000000000000000000000000000000000000602082015250565b7f43616e6e6f742064656c65746520616e6f74686572207573657227732061636360008201527f6f756e7400000000000000000000000000000000000000000000000000000000602082015250565b7f556e617574686f72697a65642061636365737300000000000000000000000000600082015250565b7f4163636f756e7420646f6573206e6f7420657869737400000000000000000000600082015250565b7f456d61696c20646f6573206e6f74206578697374000000000000000000000000600082015250565b7f4163636f756e7420616c72656164792065786973747300000000000000000000600082015250565b613ad9816136d6565b8114613ae457600080fd5b5056fea2646970667358221220309d6dd5e843c43bc6e10dd11ad68cf72eacddee21b19ecc562c4282949d76f564736f6c63430008040033",
  "linkReferences": {},
  "deployedLinkReferences": {}
}